:1000000038C100005EC100005CC100005AC10000A0
:1000100058C1000056C1000054C1000052C1000088
:1000200050C100004EC100004CC100000C94A5114D
:100030000C94231046C1000044C1000042C10000DE
:1000400040C100003EC100003CC100003AC10000B8
:1000500038C100000C947C0F34C100000C945F1276
:100060000C9486120C94C8122CC100002AC1000006
:1000700028C10000233078253032580A0023307818
:10008000253032580A00202076583A25692C2076EF
:10009000593A25692C20765363726F6C6C3A256946
:1000A0000A002523630A007C2523737C0A0025238C
:1000B000630A005343524F4C4C45440A00257320B9
:1000C00052583A2027256327205B25645D2028307D
:1000D0007825303258290A000A002030782530323D
:1000E0005800454550524F4D5B3078253034585DAF
:1000F0003A2000454550524F4D2056657269667949
:100100002E2E2E00454550524F4D20456469742EC9
:100110002E2E00454550524F4D2044756D70207075
:10012000616765733A20307825303258202E2E2EA4
:10013000203078253032580A004164616672756952
:10014000742E636F6D005553422F536572205247D2
:100150004220426B706B0025346930302F384E31AD
:10016000202573005553422F536572205247422079
:10017000426B706B000129022904290829102920EB
:100180002940298029012302230423082310232046
:100190002340238023802640262026102604260084
:1001A000010000D3011200020000E501430003003A
:1001B00000280204010309042C0218020309044662
:1001C0000216030309045E020C0001C1020180262D
:1001D0000181261201000202000020C016830400E3
:1001E000010102030109024300020100C0320904B7
:1001F0000000010202010005240010010524010095
:1002000001042402060524060001070582030800F4
:100210004009040100020A00000007050302200053
:100220000007058402200000040309041803540099
:10023000650065006E007300790064007500690058
:100240006E006F00000016035500530042002000AE
:10025000530065007200690061006C0000000C032F
:100260003100320033003400350000006201B11269
:10027000FF1511241FBECFEFD2E0DEBFCDBF11E0CE
:10028000A0E0B1E0E4E5FFE202C005900D92A235E6
:10029000B107D9F712E0A2E5B1E001C01D92A03587
:1002A000B107E1F712E0C2E7D2E004C02297FE01F5
:1002B0000E942017CC36D107C9F70E944E130C9428
:1002C000A8179ECEAF92CF92EF920F931F9382E525
:1002D00091E06CE04DE02EE001E074E0E72E55E0A7
:1002E000C52E36E0A32E0E94E90D04EC11E0C801F2
:1002F00060E070E00E942A0E80936701C80161E00F
:1003000070E00E942A0E809368010FB6F8948091E5
:10031000C9019091CA01A091CB01B091CC010FBE4F
:100320008093BF019093C001A093C101B093C2011B
:100330001F910F91EF90CF90AF900895CF92DF92E1
:10034000EF92FF920F931F93A4ECCA2EA1E0DA2E36
:10035000C60168E070E00E942A0EE82EFF2400E04B
:1003600010E0102F0F2DFE2CEE24C60169E070E086
:100370000E942A0E90E0A0E0B0E0E82AF92A0A2BB9
:100380001B2B102F0F2DFE2CEE24C6016AE070E00F
:100390000E942A0E282F30E040E050E02E293F290D
:1003A000402B512BB901CA011F910F91FF90EF9083
:1003B000DF90CF900895FF920F931F93082FF92E8F
:1003C000162F84EC91E0602F7F2D0E942A0E1817C3
:1003D00039F084EC91E0602F7F2D412F0E94260E92
:1003E0001F910F91FF9008950F931F93182F062FC1
:1003F00081E090E0E0DF80E090E0612FDCDF1093AF
:100400006701009368011F910F9108951F93182FA2
:1004100000D000D000D0EDB7FEB7319686E492E070
:10042000ADB7BEB712969C938E9311978DE790E06F
:1004300093838283148315820E947E13EDB7FEB7E7
:10044000319681ED91E0ADB7BEB712969C938E9335
:10045000119784E790E093838283148315820E942E
:100460007E138DB79EB706960FB6F8949EBF0FBE4B
:100470008DBF1F910895DF92EF92FF920F931F930C
:10048000CF93DF93882309F4A5C08DB79EB7089753
:100490000FB6F8949EBF0FBE8DBFEDB7FEB7319675
:1004A00006E412E0ADB7BEB712961C930E931197F7
:1004B0008EEA90E0938382838091670190E00296B8
:1004C000958384838DE290E0978386830E947E13D8
:1004D000FF248DB79EB708960FB6F8949EBF0FBE47
:1004E0008DBFD02EE12E07EA10E02BC0ADB7BEB70E
:1004F00018970FB6F894BEBF0FBEADBFEDB7FEB7ED
:1005000031961196DC9211971296EC921383028326
:1005100080916701848315828F2D90E064E170E003
:100520000E94B61687599E4F978386830E947E133A
:10053000F3948DB79EB708960FB6F8949EBF0FBE82
:100540008DBF80916801C6E4D2E0F81678F2ADB7AD
:10055000BEB718970FB6F894BEBF0FBEADBFEDB7CC
:10056000FEB731961296DC93CE93119782EA90E013
:10057000938382838091670190E0029695838483C0
:100580008DE290E0978386830E947E1300D0EDB7C2
:10059000FEB73196ADB7BEB71296DC93CE931197E6
:1005A00086E890E0938382838091B90184831582E9
:1005B0008091BA01868317828091BC018087118661
:1005C0000E947E138DB79EB70A960FB6F8949EBF11
:1005D0000FBE8DBFDF91CF911F910F91FF90EF90D4
:1005E000DF9008954F925F926F927F928F929F92C9
:1005F000AF92BF92CF92DF92EF92FF920F931F9331
:10060000CF93DF93862EF82E96E4C92E92E0D92E52
:1006100082EE482E80E0582E0AED602E00E0702E0B
:10062000C6019C2CE92E18EDA12E10E0B12E5CC065
:100630000F2D10E000D000D000D0EDB7FEB73196FE
:10064000ADB7BEB71296DC92CE921197538242821A
:10065000158304830E947E13000F111F000F111FCA
:10066000C0E0D0E0EDB7FEB736960FB6F894FEBF07
:100670000FBEEDBFBE01600F711F84EC91E00E94C0
:100680002A0E00D000D000D0EDB7FEB73196ADB73E
:10069000BEB71296DC92CE921197738262828483E7
:1006A00015820E947E132196EDB7FEB736960FB6DF
:1006B000F894FEBF0FBEEDBFC430D105D9F600D00F
:1006C00000D0ADB7BEB711969C9211971296EC92DE
:1006D00012971496BC92AE9213970E947E13F394D5
:1006E0000F900F900F900F908F1408F0A1CFDF9113
:1006F000CF911F910F91FF90EF90DF90CF90BF901F
:10070000AF909F908F907F906F905F904F900895E3
:10071000E09112016E2F70E0FB010E94EB0EBF0111
:1007200080911101482F50E0FA010E94EB0EAF01B9
:1007300080911001282F30E0F9010E94EB0E9F01FB
:1007400080910F0190E0FC010E94EB0ECF01E62F9B
:10075000EE0FE42BEE0FE22BEE0FE82B809113014E
:10076000E82382958F708E270895EF92FF920F9362
:100770001F93E82EF62E81E06817B9F0681730F065
:10078000EE2DF0E080E1681729F51EC00E2D10E077
:10079000015F1E4FF80180810E942D0EF8018081BB
:1007A000E82FF0E00E947A0E1CC00E2D10E0015FD1
:1007B0001E4FF80180810E942D0EF8018081E82FE4
:1007C000F0E00E94740E0DC0E15FFE4F80810E9438
:1007D0003E0E07C0E15FFE4F80810E94570E21E16F
:1007E000F22E8E2D90E00C966F2DE5DD1F910F916E
:1007F000FF90EF900895982F442359F08091B9010C
:10080000890F8093B9018091BA01860F8093BA0154
:1008100006C091509093B90161506093BA019091D4
:10082000B90180916701981738F01092B901809151
:10083000BA018F5F8093BA019091BA0180916801EB
:10084000981750F01092BA0184EC91E067E070E0E4
:100850000E942A0E8093BC0182E591E06091B9016B
:100860004091BA010C940C0DDF92EF92FF920F931E
:100870001F93CF93DF93982F8091BC01282F30E0F6
:1008800080FF61C0892F90E022703070821793073B
:1008900009F059C08091C30182FF12C000D000D07E
:1008A00086E492E0EDB7FEB79283818383EB90E01C
:1008B000948383830E947E130F900F900F900F906C
:1008C00010E038C0D12ED39481E06D2D40E093DF4D
:1008D00000E0C12FD0E07E010894E11CF11C25C08E
:1008E0008091680190E00197C817D90711F420E2C0
:1008F0000BC0C70164E170E00E94B616FC01E00F76
:10090000F11DE759FE4F2081CE0164E170E00E94A5
:10091000B616FC01E00FF11DE759FE4F208382E57A
:1009200091E0622F0E94BA0C0F5F80916701081757
:10093000B8F21D2D60916801161720F281E040E0A9
:100940005ADF1092BC01DF91CF911F910F91FF9060
:10095000EF90DF9008951F93182F8A3011F08D309B
:1009600079F48091BB018D3011F41A3089F180E265
:10097000F2DF8091B9018823D1F71093BB012CC01D
:10098000883059F48FEF60E041E035DF80E2E3DF4B
:100990008FEF60E041E02FDF1BC080E065DF20913A
:1009A000B9018091BA0190E064E170E00E94B6164E
:1009B000FC01E20FF11DE759FE4F108382E591E043
:1009C000612FD8D781E060E041E015DF82E04CDFA5
:1009D0008091C30184704FDD1F9108950F931F9381
:1009E000CF93DF9310E000E2C0E4DFE11CC001938D
:1009F000812F90E064E170E00E94B616820F931F91
:100A000087599E4FE817F90791F782E591E00E9418
:100A10003A0DCE010197F1F781E061E040E0EBDEB5
:100A20001092BC011F5F80916801181768F4209133
:100A30006701812F90E064E170E00E94B616FC012E
:100A4000E759FE4F30E0D4CFDF91CF911F910F9146
:100A500008952F923F924F925F926F927F928F9262
:100A60009F92AF92BF92CF92DF92EF92FF920F933D
:100A70001F93DF93CF930F92CDB7DEB7882309F48E
:100A8000F0C0279A209118018FEF90E0821B910906
:100A900090938D0080938C0080918000886080937B
:100AA0008000E0901401FF2400E010E084EC91E06D
:100AB00060E170E00E942A0E00D000D090E0A0E03B
:100AC000B0E0EDB7FEB781839283A383B483C801FE
:100AD000B70120E030E040E050E0AFEFEA2EF12C2B
:100AE000012D112DAA24BB2465010E946F16962E9C
:100AF000E0901501FF2400E010E00F900F900F90A0
:100B00000F9084EC91E061E170E00E942A0E00D029
:100B100000D090E0A0E0B0E0EDB7FEB78183928313
:100B2000A383B483C801B70120E030E040E050E087
:100B3000FFEFEF2EF12C012D112D0E946F16262EA6
:100B4000E0901601FF2400E010E00F900F900F904E
:100B50000F9084EC91E062E170E00E942A0E00D0D8
:100B600000D090E0A0E0B0E0EDB7FEB781839283C3
:100B7000A383B483C801B70120E030E040E050E037
:100B8000EFEFEE2EF12C012D112D0E946F16662E27
:100B9000292D30E040E050E08091170190E0A0E086
:100BA000B0E0EDB7FEB781839283A383B483CA011B
:100BB000B90120E030E040E050E00E946F16698308
:100BC0003324442455248091170190E0A0E0B0E044
:100BD000EDB7FEB781839283A383B483C201B101D1
:100BE00020E030E040E050E00E946F16262E77248F
:100BF000882499248091170190E0A0E0B0E0EDB73F
:100C0000FEB781839283A383B483C401B30120E040
:100C100030E040E050E00E946F16509A0F900F9025
:100C20000F900F90F981FF2321F0F8BD84B5806209
:100C300003C0589884B58F7D84BD3D9A822D90E085
:100C400090938B0080938A008091800080628093D3
:100C50008000509A862F90E09093890080938800BE
:100C600014C0509A589884B58F7D84BD3D9A1092D7
:100C70008B0010928A0080918000806280938000B7
:100C8000509A1092890010928800809180008068AC
:100C9000809380000F90CF91DF911F910F91FF9073
:100CA000EF90DF90CF90BF90AF909F908F907F900C
:100CB0006F905F904F903F902F9008950F931F93E8
:100CC00086E492E00E94AA148C0181ED91E00E94DA
:100CD0001F12801791072CF486E492E00E94AA1458
:100CE00004C081ED91E00E941F121F910F910895A1
:100CF0001F93CF93DF9384EC91E06FEF70E0AAD75E
:100D0000182F882349F40EC0CE010197F1F7112363
:100D100009F462C0115002C0C0EADFE0CFDF892BC6
:100D200099F303C0CBDF892BE9F386E492E00E94BC
:100D3000AA14892B39F086E492E00E94E314182F5C
:100D400090E00FC081ED91E00E941F12892B19F4F1
:100D500090E010E006C081ED91E00E944012182F53
:100D600091E08091C30180FF37C0992319F440E0DE
:100D700051E002C044E051E0103218F420E230E0CB
:100D800002C0212F30E08DB79EB70C970FB6F894B4
:100D90009EBF0FBE8DBFEDB7FEB7319686E492E0E1
:100DA000ADB7BEB712969C938E9311978DEB90E0E2
:100DB00093838283558344833783268310871186E8
:100DC000128713860E947E138DB79EB70C960FB6BE
:100DD000F8949EBF0FBE8DBF812FDF91CF911F91E1
:100DE0000895EF92FF920F931F937B018C01A6DA77
:100DF0006E157F058007910799F0980144275527C4
:100E000088E090E0622FD7DA5527412F302F2F2D21
:100E100089E090E0622FCFDA8AE090E06E2DCBDAA5
:100E200086E492E0B801A7010E941D16C801B7012F
:100E3000969587957795679560587B47814E9F4F2C
:100E4000A80197010E94E11681ED91E0B9014FEFF1
:100E50000E94151352985A9A1F910F91FF90EF908C
:100E60000895CF92DF92EF92FF920F931F93DF933B
:100E7000CF93CDB7DEB728970FB6F894DEBF0FBE7D
:100E8000CDBFF82EE62E8E010F5F1F4F49E0C42E16
:100E9000D12CCC0EDD1E2CDFF80181938F01EC15D7
:100EA000FD05C9F7F3E0FE1540F482E591E06F2DF2
:100EB000AE014F5F5F4F65D52AC087E08F1538F1CF
:100EC0000F2D10E033E0000F111F3A95E1F70050AD
:100ED0001F4F8E2D90E026E0880F991F2A95E1F78D
:100EE000080F191FEE24FF246E010894C11CD11CA9
:100EF000F601EE0DFF1DC701800F911F60815BDAC7
:100F00000894E11CF11CE8E0EE16F10489F728963C
:100F10000FB6F894DEBF0FBECDBFCF91DF911F910A
:100F20000F91FF90EF90DF90CF9008957F928F9276
:100F30009F92AF92BF92CF92DF92EF92FF920F9368
:100F40001F93DF93CF93CDB7DEB728970FB6F894F2
:100F5000DEBF0FBECDBF8430C8F5A82EBB2466E02F
:100F6000AA0CBB1C6A95E1F780E091E0A80EB91EBF
:100F7000CC24DD244E010894811C911C1BC0B801B7
:100F80006E0D7F1D84EC91E065D6F401E00FF11F3A
:100F900080830F5F1F4F0830110589F782E591E0CC
:100FA000672DA401EED40894C11CD11C98E0C91689
:100FB000D10461F07C2C760153E0EE0CFF1C5A95B5
:100FC000E1F7EA0CFB1C00E010E0D9CF28960FB641
:100FD000F894DEBF0FBECDBFCF91DF911F910F916F
:100FE000FF90EF90DF90CF90BF90AF909F908F9049
:100FF0007F900895FF920F931F93CF93DF9378DE36
:10100000182F853509F487C18635E8F58A3409F447
:10101000F0C08B34F8F4823409F47AC0833450F48D
:10102000803409F473C0813408F019C1893309F0A0
:101030005DC21AC1863409F48FC0873420F4853428
:1010400009F054C2D5C1873409F4BBC0883409F013
:101050004DC299C0803509F48CC0813568F48C3458
:1010600009F4C1C08C3408F4C8C08D3409F4BDC083
:101070008E3409F03BC243C1833509F4C5C08435C1
:1010800008F0BBC085C0813C09F43CC1823CC8F477
:10109000893509F447C18A3538F4873509F455C1D3
:1010A000883508F073C043C18A3938F4883908F0AC
:1010B00056C0813909F01AC25CC0803C09F016C2E2
:1010C00027C1843D09F482C1853D80F4803D09F447
:1010D00055C1813D20F4833C09F008C244C1813DE3
:1010E00009F466C1833D09F001C269C18C3D09F470
:1010F00081C18D3D20F4853D09F0F8C13FC18D3D92
:1011000009F480C18E3D09F0F1C1AAC100E0A0C080
:10111000EFDD87FF04C090E08F77907005C090E00E
:101120006CE370E00E94B6169093BE018093BD01FF
:101130000FB6F8948091C9019091CA01A091CB019A
:10114000B091CC010FBE8093BF019093C001A093DA
:10115000C101B093C2014CC180E07BDCC7C1C8DDD6
:10116000682F80931701183909F042C183E090E09D
:101170003DC1BEDD682F80931801113909F038C1D7
:1011800082E090E033C180E060E02AC027DCAEC19D
:1011900084EC91E067E070E05DD590E0212F30E0D5
:1011A0008227932780FFA2C184EC91E067E070E082
:1011B00051D541E0482784EC91E067E070E046D5E6
:1011C00095C196DD90916701182F981708F4192F93
:1011D0008FDD90916801682F981708F4692F812F8F
:1011E00040E009DB83C18FEF01C081E060E041E0B6
:1011F000F8CF82E591E0FAD379C182E591E0FED3A0
:1012000082E591E0EDD372C182E591E0E1D36EC158
:10121000A12FB0E0802F90E070E00E94B6169C01F4
:1012200020553F4F802F90E064E170E00E94B61699
:10123000FC01EA0FFB1FE759FE4FC9018A0F9B1FF4
:101240006081B9D81F5F60916701161708F30F5FBF
:1012500080916801081708F049C110E0F4CF48DD1B
:10126000682F83E190E0AFC043DD8932F9F08A3224
:1012700060F48031A9F1813118F48830D9F535C096
:10128000893149F18232B1F521C0833551F084357D
:1012900018F4833379F515C0873661F18F3C51F529
:1012A0000BC060EB74E080E090E004C060E679E0A1
:1012B00080E090E096DD1AC160EC72E180E090E0A1
:1012C000F9CF60E07BE480E090E0F4CF60E870E785
:1012D00080E090E0EFCF60E076E980E090E0EACF58
:1012E00060E071EE80E090E0E5CF60E072EC81E0DC
:1012F00090E0E0CF60E875E280E090E0DBCFF8DCE2
:101300006FEF04C0F5DC182FF3DC612FAADDEEC00F
:10131000EFDC0CDEEBC0ECDC682F809313018BE07C
:1013200090E049D8F5D98093660170D8DFC0E0DC41
:101330008150843008F0DAC0E82FF0E0E15FFE4F22
:101340008081E82FF0E0D6D4D1C0D2DC8150843047
:1013500008F0CCC0E82FF0E0E15FFE4F8081E82F7D
:10136000F0E0C2D4C3C0C4DC182F1150C1DC682F18
:10137000143008F0BBC0812FF8D9B8C0B9DC809315
:101380001401B6DC80931501B3DC80931601103D87
:1013900079F584E090E0609114010DD885E090E04B
:1013A0006091150108D886E090E0609116011EC09A
:1013B0009FDC182F9DDC682F812F16D897C098DCF2
:1013C000682F87E090E00E94DB0190C091DC682FDD
:1013D00080E190E00E94DB018BDC682F81E190E0EE
:1013E0000E94DB0185DC682F82E190E00E94DB0136
:1013F00081E0B3CE7DDC8093C30186FF77C081E0BE
:101400003AD874C075DC082F0F7772DC182F1F775D
:101410008DB79EB708970FB6F8949EBF0FBE8DBFCD
:10142000EDB7FEB7319686E492E0ADB7BEB712963F
:101430009C938E93119783E191E09383828304833D
:101440001582168317820E947E13EDB7FEB7389679
:101450000FB6F894FEBF0FBEEDBF802F612F45C0C1
:1014600047DCEFE7FE2EF82200D000D086E492E0C1
:10147000ADB7BEB712969C938E93119784E091E01E
:1014800014969C938E9313970E947E130F900F9047
:101490000F900F908F2D6F2DA5D8CF2DD0E0CC0FB2
:1014A000DD1FCC0FDD1F00E010E022DC682FC8013B
:1014B0008C0F9D1F0E94DB010F5F1F4F0430110531
:1014C000A1F700D000D086E492E0EDB7FEB792839A
:1014D000818383EF90E0948383830E947E130F9037
:1014E0000F900F900F908F2D6F2D7CD8DF91CF91A3
:1014F0001F910F91FF900895E1DB892B31F0F8DB0C
:101500008E3F11F028DA01C075DD02D9982F809145
:101510006601981769F0909366018091C30187FD79
:1015200007C0892F0E94060280E49CE90197F1F729
:101530006091BD017091BE016115710509F439C05A
:101540000FB6F8948091C9019091CA01A091CB0186
:10155000B091CC010FBE2091BF013091C0014091EC
:10156000C1015091C201821B930BA40BB50B885E85
:101570009340A040B040E8F00FB6F8948091C901C4
:101580009091CA01A091CB01B091CC010FBE809384
:10159000BF019093C001A093C101B093C201CB01E0
:1015A00001979093BE018093BD01892B11F480E0D7
:1015B00050CA0895EF92FF920F931F93CF93DF933A
:1015C0000E949E016150724C8140904028F060E87A
:1015D00075E280E090E002C00E949E0102DC8091F2
:1015E0006701853108F080E160916801653008F09D
:1015F00062E00E94F401279A509A3D9A3E9ACCE00C
:10160000D0E084EC91E0BE0125D3682FFE01EC50C0
:101610008E2FABD82196C031D10599F784EC91E09B
:101620006BE070E017D38093130172D8809366014A
:10163000F2E5EF2EF1E0FF2EC701609167014091C6
:10164000680120E01ED280E071DC81E002DAC7018F
:1016500011D200D000D0EDB7FEB7F282E18284E66D
:1016600091E0948383830E947E130F900F900F90DC
:101670000F90C70160E041E0CFD10E949E012DB7DD
:101680003EB7285030400FB6F8943EBF0FBE2DBF76
:101690000DB71EB70F5F1F4FEDB7FEB7F282E182A5
:1016A00027E531E0F8013383228324E630E040E08F
:1016B00050E00E94E116F8013583248389E091E02F
:1016C000978386830E947E1300E02DB73EB7285F84
:1016D0003F4F0FB6F8943EBF0FBE2DBFC0E4DCE90C
:1016E00004C0CE010197F1F70F5F84EC91E063E154
:1016F00070E0B0D20817A8F384EC91E064E070E0E9
:10170000A9D28093140184EC91E065E070E0A2D24C
:101710008093150184EC91E066E070E09BD28093A9
:10172000160184EC91E063E070E094D2809317019D
:1017300084EC91E062E070E08DD28093180181E04A
:1017400088D984EC91E060EB70E084D2C2E5D1E00E
:101750008F3F41F5CE018ED100D000D0EDB7FEB75E
:10176000D283C18386E491E094838383C7D70F90AB
:101770000F900F900F90CE0160E041E04DD100D06E
:1017800000D0EDB7FEB7D283C18389E391E09483A3
:101790008383B4D70F900F900F900F9000E0C0E9B3
:1017A000D1E030C0CE0166D110E01FC0E12EE3943D
:1017B00081E06E2D40E01FD800E012C0812F90E044
:1017C00070E00E94B616BC0160557F4F600F711D1E
:1017D00084EC91E03FD2682F82E591E0CBD00F5F9F
:1017E00060916701061750F31E2D8091680118174C
:1017F000E8F2D4CF88EE93E0FE013197F1F701973C
:10180000D9F70F5F84EC91E063E170E023D2081711
:1018100088F3E4D8DF91CF911F910F91FF90EF9063
:101820000895DC011596EC914E2F50E0CA01FC01A1
:1018300061D284E0982F9150F1F79A01F90154D2C6
:101840008150F1F7FA0156D280E991E00197F1F762
:101850000895CF92DF92EF92FF920F931F93CF9351
:10186000DF93D82EC92E282F392FC9018C01C0E053
:10187000D0E0E62EFF24F8018681EFD1F8018681C1
:10188000E82FF0E0C7010C2E02C0959587950A94C9
:10189000E2F78170082E25D221960F5F1F4FC830C6
:1018A000D10549F78D2D9C2DBCDFDF91CF911F9184
:1018B0000F91FF90EF90DF90CF900895CF92DF923D
:1018C000EF92FF920F931F93CF93DF93D82EC92EE1
:1018D000282F392FC9018C01C0E0D0E0E62EFF246B
:1018E000F8018681BAD1F8018681E82FF0E0C701BE
:1018F0000C2E02C0959587950A94E2F78170082E08
:10190000F0D121960F5F1F4FC430D10549F78D2DBF
:101910009C2D87DFDF91CF911F910F91FF90EF906A
:10192000DF90CF9008951F93CF93DF93EC01162F94
:101930008B81E82FF0E0042ED4D18C818F3F19F0F9
:10194000E82FF0E0D7D18E8584FF04C0CE01612F4F
:1019500080DF0CC0612F70E084E0759567958A95F3
:10196000E1F7CE01ABDFCE01612FA8DFDF91CF9190
:101970001F91089541E0D7DF81E090E0089540E0B5
:10198000D2CFEF92FF920F931F93CF93DF938C01EF
:101990007A016770660F660F660F6064F0DFC0E063
:1019A000D0E0D801ED91FC91D701AC0FBD1F0190A3
:1019B000F081E02DC8016C9109952196C830D105C0
:1019C00081F7DF91CF911F910F91FF90EF900895D4
:1019D000FC016785862F816087876960CF01CFCF43
:1019E000FC0167856E7F67876860C9CFFC016785EA
:1019F000862F826087876A60CF01C1CFFC0167852F
:101A00006D7F67876860BBCFFC016785862F846028
:101A100087876C60CF01B3CFDF93CF93CDB7DEB7AD
:101A200028970FB6F894DEBF0FBECDBF9C01FE0114
:101A30003196A9E2B1E088E00D9001928150E1F782
:101A4000F9018289481710F0482F4150E42FF0E047
:101A5000EE0FFF1FEC0FFD1F8181680F6068C90149
:101A60008EDF28960FB6F894DEBF0FBECDBFCF91A4
:101A7000DF91089561E083DF80E49FE10197F1F752
:101A800008950F931F93CF93DF93EC01423018F02A
:101A90008E8588608E874A8B1B8A222329F04130ED
:101AA00019F48E8584608E8780E49DE00197F1F7BC
:101AB0008B81E82FF0E01ED18D81E82FF0E01AD164
:101AC0008C818F3F19F0E82FF0E014D16E8564FD12
:101AD00019C0CE0163E0F2DE00E516E4C80101970B
:101AE000F1F7CE0163E0EADEC8010197F1F7CE011C
:101AF00063E0E4DE88E592E00197F1F7CE0162E071
:101B0000DDDE13C06062CE013ADF80E596E4019726
:101B1000F1F76E856062CE0132DF88E592E00197D1
:101B2000F1F76E856062CE012ADF6E856062CE01BC
:101B300026DF84E08F87CE0167DFCE019BDF82E066
:101B4000888BCE0166E01BDFDF91CF911F910F9153
:101B500008956F927F928F92AF92CF92EF920F93F0
:101B60001F93DF93CF93CDB7DEB73C01162F842FA1
:101B7000F301438324830583E682C782A08681869E
:101B80009D8592879E8593879F8594879889958761
:101B900064D0F30184818F3F09F05FD0F301858128
:101BA0005CD0112319F0F301168603C080E1F30124
:101BB0008687C30160E141E020E063DFCF91DF91E0
:101BC0001F910F91EF90CF90AF908F907F906F907B
:101BD00008958F92AF92CF92DF92EF92FF920F9380
:101BE0001F93CF93DF93DC01362F542F722F102FCA
:101BF000FE2CDC2C8A2C12961C92129785E291E026
:101C000011969C938E9300D000D0EDB7FEB731961D
:101C1000CDB7DEB71982118212821382CD0161E045
:101C2000432F252F072FE12ECF2CAD2C92DF0F90C5
:101C30000F900F900F90DF91CF911F910F91FF9018
:101C4000EF90DF90CF90AF908F900895CB01642FED
:101C50000C947617CB010C946E17853170F4E5E780
:101C6000F1E0880FE80FF11D9591E491F0E02FB7B6
:101C7000F8948181892B81832FBF08958531B0F439
:101C8000E5E7F1E0880FE80FF11D9591E491F0E0B0
:101C90002FB7F8948181909589238183828189234C
:101CA000828380910000809300002FBF08958531CA
:101CB000B8F4E5E7F1E0880FE80FF11D2591E49114
:101CC000F0E03FB7F8948181922F9095892381832A
:101CD0008281822B828380910000809300003FBF2D
:101CE0000895002039F000C0E53150F4EE0FEF57B1
:101CF000F14F0994E53120F4EE0FE555F14F0994C9
:101D00000895589A52C0599A08955A9A08955B9A1C
:101D100008955C9A08955D9A08955E9A08955F9A71
:101D20000895289A0895299A08952A9A08952B9A31
:101D300008952C9A08952D9A08952E9A08952F9A11
:101D400044C0479A0895469A34C0459A38C0449A88
:101D50000895429A0895589828C0599808955A9815
:101D600008955B9808955C9808955D9808955E982D
:101D700008955F98089528980895299808952A98B5
:101D800008952B9808952C9808952D9808952E98CD
:101D900008952F981AC04798089546980AC0459804
:101DA0000EC04498089542980895E4B5EF7DE4BDCF
:101DB0000895E0918000EF77E09380000895E0912E
:101DC0008000EF7DE09380000895E0918000E77F40
:101DD000E09380000895E53130F4EE0FEE0FFF2719
:101DE000E950F14F0994EE270895E1E00895E9B133
:101DF000E170D9F70895E9B1E270B9F70895E9B152
:101E0000E47099F70895E9B1E87079F70895E9B1B8
:101E1000E07159F70895E9B1E07239F70895E9B131
:101E2000E07419F70895E9B1E078F9F60895E3B19F
:101E3000E170D9F60895E3B1E270B9F60895E3B11F
:101E4000E47099F60895E3B1E87079F60895E3B186
:101E5000E07159F60895E3B1E07239F60895E3B1FF
:101E6000E07419F60895E3B1E078A9F40895E6B1B5
:101E7000E07889F40895E6B1E07469F40895E6B174
:101E8000E07249F40895E6B1E07129F40895E6B1ED
:101E9000E47009F40895E1E008951DBA1092680015
:101EA0001CBC10BE1FBA10926E0010926F001092F0
:101EB000C90014B817B81AB815B818B81BB80895DF
:101EC000F89480E29EE40197F1F781E08093E000CE
:101ED00080E28093D80080E69AEE0197F1F7DDDF8B
:101EE0000C94001FFFCFF894D8DF80E69AEE01979C
:101EF000F1F70C940000FFCF8F938FB78F938091F1
:101F0000CD018D5F8D37D0F48093CD018091C901D3
:101F10008F5F8093C901D8F08091CA018F4F809361
:101F2000CA01A8F08091CB018F4F8093CB0178F04C
:101F30008091CC018F4F8093CC0109C08D57809345
:101F4000CD018091C9018E5F8093C90128F78091EE
:101F5000C5018C5F8093C50158F08091C6018F4FF9
:101F60008093C60128F08091C7018F4F8093C701ED
:101F70008F918FBF8F9118959B01AC0114D0FB01FD
:101F80000CC011D06E1B7F0B685E7340D0F32150E4
:101F9000304040405040E851FC4F2115310541058B
:101FA000510579F708950FB6F89466B515B270919A
:101FB000C5018091C6019091C7010FBE10FE05C0FA
:101FC0006F3F19F07C5F8F4F9F4F11240024660FE5
:101FD000001C660F001C70290895F894E1E6F0E0FB
:101FE00080E88083108283E084BD85BDEEE6F0E06A
:101FF00080818160808381E08093800082E0809393
:10200000810002D0789408958091D80087FF02C0A3
:1020100085FF18C080EA8093D80086E089BD09B4A6
:1020200000FEFDCF80E88093D8001092E00010926F
:10203000500210925102109252021092E1008DE073
:102040008093E20008951F920F920FB60F92112411
:102050002F933F934F935F936F937F938F939F93B0
:10206000AF93BF93EF93FF931092E9008091E80044
:1020700083FF57C12091F1009091F1004091F10050
:102080005091F1006091F1007091F100A091F10088
:10209000B091F10082EF8093E800963009F044C0DF
:1020A000EFE9F1E020E0859195918417950711F013
:1020B000359617C0859195918617970711F033963D
:1020C00010C0259135914491CD01AF3FB10519F074
:1020D00010F08FEF90E0841708F4482FF9015EEFBD
:1020E00004C02F5F2630F9F61CC18091E800282F2C
:1020F00030E0C90185709070892BB9F322FD14C1BD
:10210000242F413208F020E2922F04C08591809361
:10211000F10091509923D1F7421B5093E8004423DA
:1021200021F7203211F300C1953061F48EEF8093D6
:10213000E8008091E80080FFFCCF842F80688093C6
:10214000E300F2C0993009F5222309F0EAC0409378
:102150005002109252021092CE018EEF8093E8004E
:10216000E9ECF1E091E09093E90085918093EB0038
:10217000882331F085918093EC0085918093ED0068
:102180009F5F953081F78EE1C7C0983061F42038A9
:1021900009F0C7C08091E80080FFFCCF8091500219
:1021A0008093F10096C09132A9F4213A09F0B9C0A8
:1021B0008091E80080FFFCCF20E030E0F901E75E8D
:1021C000FE4F80818093F1002F5F3F4F2730310514
:1021D000A9F77FC0903209F04BC0213209F0A1C0AD
:1021E0008091E80082FFFCCF20E030E0F901E75E5B
:1021F000FE4F8091F10080832F5F3F4F27303105E4
:10220000A9F78BEF8093E8008EEF8093E800809130
:10221000190190911A01A0911B01B0911C018638FF
:102220009105A105B10519F48FE08093CF0180914C
:10223000190190911A01A0911B01B0911C018639DE
:102240009105A105B10509F06FC084E08093E90014
:102250002FEF06C02093E8008091E80082FDFCCFBC
:102260008091EE0090E083709070892B99F73BDEAF
:10227000923251F4213209F054C0409352028091BD
:10228000E80080FFFCCF25C0933241F4213209F0F1
:1022900048C08091E80080FFFCCF1BC09923E9F47F
:1022A0008091E80080FFFCCF223811F080E00DC063
:1022B0006093E9008091EB0090E025E0969587958A
:1022C0002A95E1F781701092E9008093F100109255
:1022D000F1008EEF8093E80027C0913011F0933029
:1022E00001F52230F1F4452BE1F4262F2F77822FD0
:1022F00081508630B0F48EEF8093E8002093E9009F
:10230000933079F089E18093EB0081E090E002C0A6
:10231000880F991F2A95E2F78093EA001092EA004D
:1023200003C081E28093EB00FF91EF91BF91AF91E9
:102330009F918F917F916F915F914F913F912F91DD
:102340000F900FBE0F901F9018951F920F920FB60F
:102350000F9211242F933F934F935F936F937F932B
:102360008F939F93AF93BF93EF93FF938091E1007F
:102370001092E100982F83FF11C01092E90081E0D4
:102380008093EB001092EC0082E28093ED0088E0F5
:102390008093F000109250021092520292FF1DC0E2
:1023A000809150028823C9F08091CE01882359F092
:1023B00081508093CE01882331F484E08093E9003A
:1023C0008AE38093E8008091CF01882331F0815027
:1023D0008093CF01882309F473DD90FF0CC080E166
:1023E0008093E2001092500281E08093510280EAD3
:1023F0008093D80019BC80915102882379F094FF12
:102400000DC086E089BD09B400FEFDCF80E8809351
:10241000D8008DE08093E20010925102FF91EF917D
:10242000BF91AF919F918F917F916F915F914F91EC
:102430003F912F910F900FBE0F901F901895909184
:10244000040280910502292F30E0482F50E09817B0
:1024500010F4205C3F4F241B350BC9010895809177
:102460000402E09105028E1719F4EFEFFFEF06C0AA
:10247000F0E0EA5FFD4F8081E82FF0E0CF010895A2
:102480009091040280910502981719F42FEF3FEF05
:102490000FC0209105022F5F203408F020E0E22FCA
:1024A000F0E0EA5FFD4F808120930502282F30E0A5
:1024B000C90108958091D9018823E1F708951F92F9
:1024C0000F920FB60F9211242F938F939F93EF9338
:1024D000FF932091CE00909104029F5F903408F00A
:1024E00090E080910502981739F0E92FF0E0EA5F5B
:1024F000FD4F208390930402FF91EF919F918F9164
:102500002F910F900FBE0F901F9018951F920F9252
:102510000FB60F9211248F939F93EF93FF93909197
:10252000DA018091DB01981721F488ED8093C900CE
:102530000FC09091DB019F5F983208F090E0E92F87
:10254000F0E0E452FE4F80818093CE009093DB0157
:10255000FF91EF919F918F910F900FBE0F901F9061
:1025600018951092D30188EE93E0A0E0B0E080933C
:10257000D4019093D501A093D601B093D7011092C6
:10258000D80185E391E09093D2018093D101089521
:102590001F920F920FB60F9211248F93EF93FF9318
:1025A0001092D901809120018F3F29F08091200164
:1025B000E82FF0E09FDBFF91EF918F910F900FBE1E
:1025C0000F901F901895FC018091C90083FD05C0F4
:1025D00081E0828320E030E026C0809120018F3F9F
:1025E00049F08091D901882329F480912001E82FB6
:1025F000F0E07ADB9091DA019F5F983208F090E08A
:102600008091DB018917E1F3E92FF0E0E452FE4FFE
:10261000608381E08093D9019093DA0188EF809301
:10262000C90021E030E0C90108951F93CF93DF93E3
:10263000EB01142F409320014F3F29F0842F0DDB35
:10264000E12FF0E057DBC0FF08C080E1C130D807C0
:1026500020F482E08093C80004C01092C800D69590
:10266000C7952197D093CD00C093CC008091C9002D
:1026700083FD10C010920402109205021092DA013C
:102680001092DB011092D90186E08093CA0088ED98
:102690008093C900DF91CF911F9108959EDC0E9425
:1026A000DA0A0E947C0AFDCFCF92DF92EF92FF926E
:1026B0000F931F93CF93DF937C016B018A01C0E0DE
:1026C000D0E00FC0D6016D916D01D701ED91FC9165
:1026D0000190F081E02DC7010995C80FD91F015065
:1026E00010400115110571F7CE01DF91CF911F91B7
:1026F0000F91FF90EF90DF90CF9008952F923F922F
:102700004F925F926F927F928F929F92AF92BF9201
:10271000CF92DF92EF92FF920F931F93DF93CF93AD
:10272000CDB7DEB72A970FB6F894DEBF0FBECDBF88
:102730004F8C58A089A19AA1FC013F018E010D5D2B
:102740001F4FEE247AE0272E5E010894A11CB11CD5
:10275000F3018491882309F4C8C00894611C711C9A
:10276000D501E22D1D92EA95E9F7853209F0A2C064
:10277000CC24DD24FF2460E2362E86C089839CC0F1
:10278000D801FC900E5F1F4F7FC0C82EDD24BFE034
:10279000CB22DD2479C08062833741F0883709F489
:1027A00040C08336C1F15AE0F52E3DC042E0842E90
:1027B000912C800E911EF80160817181FF2069F0DB
:1027C000FB01DF010D900020E9F71197AE1BBF0B55
:1027D0008F2D90E0A817B90738F4FB010190002075
:1027E000E9F73197FE2EF61AEF0CD201ED91FC912C
:1027F0000280F381E02DC2014F2D50E00995F601D2
:10280000EF19F1091E161F060CF08AC0C50160E21F
:1028100070E0AF0135C0F801808189830E5F1F4FE2
:102820004BC030E1F32E22E0822E912C800E911EBF
:10283000D8018D919C91B5014F2D50E030D3B0E17E
:10284000FB1611F4C50121D3F50101900020E9F731
:102850003197EA19FB0986010E1B1F0B1016110692
:102860000CF05EC03196C501800F911FB501AF011C
:10287000F4D2232D332727FD3095C501B901A801D6
:10288000FDD24EC090E3392EF3010894611C711CF7
:102890008491882389F08033A9F3813338F483321B
:1028A00009F46ECF853209F076CF68CF8A3308F00D
:1028B00072CF6BCF8983FF24D5010D900020E9F7FB
:1028C0001197AA19BB09EA0EF20180819181FC01DE
:1028D00022813381C201B501AD01F9010995FA9454
:1028E0008F2D8F5F823040F733CF8E2D90E02A9668
:1028F0000FB6F894DEBF0FBECDBFCF91DF911F9111
:102900000F91FF90EF90DF90CF90BF90AF909F908E
:102910008F907F906F905F904F903F902F90089591
:102920008401C9CFDF93CF930F92CDB7DEB7FC01FF
:102930006983A081B18112962D913C911397BE01BC
:102940006F5F7F4F41E050E0F90109950F90CF9103
:10295000DF910895FC019FB7F8948091500288237D
:1029600011F420E010C083E08093E9002091F20090
:10297000222349F48091E80082FF05C085FD03C051
:102980008BE68093E8009FBF8085918597FD03C00B
:102990002F3F09F02F5F822F90E00895CF93DF93B0
:1029A000EC018885998597FF09C0E881F981068047
:1029B000F781E02DCE0109959987888788859985CB
:1029C000DF91CF910895FC012085318537FD05C049
:1029D0008FEF9FEF9187808722C02FB7F894809167
:1029E0005002882369F083E08093E9009BE68091A0
:1029F000E80085FD09C082FF03C09093E800F7CF8F
:102A00002FBF2FEF3FEF0CC09091F1008091E800B5
:102A100085FD03C08BE68093E8002FBF292F30E0AF
:102A2000C90108956F927F928F929F92AF92BF9249
:102A3000CF92DF92EF92FF920F931F93CF93DF938A
:102A40003C018B0180915002882329F481E0D3015D
:102A500012968C9311C03FB7F89484E08093E900FC
:102A60008091D001882369F08091E80085FD07C03E
:102A70003FBF81E0E3018A83882499249AC01092A1
:102A8000D00188249924F4E0AF2EE0E2BE2E71EF4D
:102A9000E72EF12C6AE3C62E23E0D22E85C090915A
:102AA000E400915F8091E80085FD19C03FBF8091EF
:102AB000E400891731F481E08093D001F30182832F
:102AC00078C080915002882329F481E0D3011296C6
:102AD0008C936FC03FB7F894A092E900E3CF809148
:102AE000F2002B2D281B822F90E04817590708F47D
:102AF000242F622F70E0E801D701E0E2E21BE03210
:102B000028F4EE0FFF27E957FA4E099440C0899147
:102B10008C9389918C9389918C9389918C938991D1
:102B20008C9389918C9389918C9389918C938991C1
:102B30008C9389918C9389918C9389918C938991B1
:102B40008C9389918C9389918C9389918C938991A1
:102B50008C9389918C9389918C9389918C93899191
:102B60008C9389918C9389918C9389918C93899181
:102B70008C9389918C9389918C9389918C93899171
:102B80008C9389918C9389918C9389918C938E01EC
:102B90008091E80085FD02C0C092E800461B570BFB
:102BA000860E971ED092CE014115510509F077CFC0
:102BB0003FBFC401DF91CF911F910F91FF90EF9024
:102BC000DF90CF90BF90AF909F908F907F906F904D
:102BD00008959FB7F89480915002882361F0809106
:102BE000CE01882341F084E08093E9008AE380935A
:102BF000E8001092CE019FBF0895EBCF0895E6E460
:102C0000F2E08AE0DF011D928A95E9F7109248020E
:102C100088EE93E0A0E0B0E08093490290934A02EE
:102C2000A0934B02B0934C0210924D0285E491E0C8
:102C3000909347028093460208952FEF3FEFFC01E7
:102C400031872087E1D90FB6F8948091C90190911E
:102C5000CA01A091CB01B091CC010FBEAC01809113
:102C60005002882329F068EC70E080E090E084C98D
:102C700080915102882309F10FB6F8948091C9011F
:102C80009091CA01A091CB01B091CC010FBE9C01E3
:102C900010C00FB6F8948091C9019091CA01A0911B
:102CA000CB01B091CC010FBE821B930B8B3F9105E2
:102CB000A8F480915102882361F70FB6F8948091AF
:102CC000C9019091CA01A091CB01B091CC010FBE76
:102CD000841B950B855C994008F4C1CF08952F9211
:102CE0003F924F925F926F927F928F929F92AF929C
:102CF000BF92CF92DF92EF92FF920F931F93DF93D9
:102D0000CF93CDB7DEB73B014C0119012A016D8984
:102D10007E898F89988D6A197B098C099D09621AB1
:102D2000730A840A950AA401930132D0E218F308C9
:102D300004091509A801970166D02A0D3B1D4C1DF9
:102D40005D1DB901CA01CF91DF911F910F91FF90D5
:102D5000EF90DF90CF90BF90AF909F908F907F903B
:102D60006F905F904F903F902F90089555270024CB
:102D700080FF02C0060E571F660F771F6115710591
:102D800021F096958795009799F7952F802D0895B6
:102D9000FF27EE27BB27AA2760FF04C0A20FB31F9F
:102DA000E41FF51F220F331F441F551F969587956B
:102DB0007795679589F70097760771F7CF01BD0181
:102DC0000895A1E21A2EAA1BBB1BFD010DC0AA1F6C
:102DD000BB1FEE1FFF1FA217B307E407F50720F084
:102DE000A21BB30BE40BF50B661F771F881F991FFF
:102DF0001A9469F760957095809590959B01AC0148
:102E0000BD01CF01089597FB092E05260ED057FD71
:102E100004D0D7DF0AD0001C38F450954095309587
:102E200021953F4F4F4F5F4F0895F6F7909580954E
:102E3000709561957F4F8F4F9F4F0895EE0FFF1F45
:102E40000590F491E02D0994FB01DC0102C0019092
:102E50000D9241505040D8F708956817790768F4EB
:102E6000FB01DC01E40FF51FA40FB51F02C00290A7
:102E70000E9241505040D8F70895E6CFDC0101C0D2
:102E80006D9341505040E0F70895DC016C9161561C
:102E90006A3108F0605E6F5B6D93C1F70895FB01C6
:102EA0009F01E8944230BCF04532ACF44A3029F43A
:102EB00097FB1EF4909581959F4F642F772734D010
:102EC000805D8A330CF0895D8193CB010097A9F76F
:102ED00016F45DE251931082C90116C0F999FECF34
:102EE00092BD81BDF89A992780B50895262FF9994A
:102EF000FECF1FBA92BD81BD20BD0FB6F894FA9ADD
:102F0000F99A0FBE01960895DC01FC01672F7191BB
:102F10007723E1F7329704C07C916D9370836291BF
:102F2000AE17BF07C8F30895AA1BBB1B51E107C02A
:102F3000AA1FBB1FA617B70710F0A61BB70B881F49
:102F4000991F5A95A9F780959095BC01CD010895D8
:042F5000F894FFCF23
:102F54005553420055415254002B31394C3100082D
:102F6400141310FFFFFFFFFFC000E1000000000882
:102F7400FF00000000BA0C54130000400014005479
:102F84000000000000E31254131F1240122F125AC3
:102F9400120000000092141215AA14E314CE14FDBA
:022FA400150016
:00000001FF
