:1000000010C2000035C2000033C2000031C200003F
:100010002FC200002DC200002BC2000029C2000028
:1000200027C2000025C2000023C200000C9441102A
:100030000C94BF0E1DC200001BC2000019C20000BC
:1000400017C2000015C2000013C2000011C2000058
:100050000FC200000C94180E0BC200000C949908FB
:100060000C94C0080C94020903C2000001C20000F5
:10007000FFC100005072696E7465642025692063B9
:1000800068617273210A002523630A005072696E49
:10009000746564202569206368617273210A0025F4
:1000A00023630A007C2523737C0A002523630A004E
:1000B0005072696E7465642025692063686172738B
:1000C000210A002523630A002B2523732B0A002510
:1000D00023630A007370662074657374206F662052
:1000E000252530352E31663A202530352E31662CC7
:1000F0002530352E31662C2530352E31662C2530B5
:10010000352E31660A007370662074657374206F33
:1001100066202525322E31663A2025322E31662C76
:1001200025322E31662C25322E31662C25322E3189
:10013000660A007370662074657374206F662025EC
:100140002523643A202530642C2532642C25346420
:100150002C2530360A007370662074657374206F26
:1001600066202A252538643A202538642C253864F1
:100170002C2538642C2538640A0073706620746559
:100180007374206F66202525643A2025642C25642D
:100190002C25642C25640A007370662074657374C2
:1001A000206F6620252523693A202532692C2534C5
:1001B000692C2536692C2538690A0073706620740D
:1001C000657374206F6620307825253032583A20C8
:1001D0003078253032582C3078253032582C307811
:1001E000253032582C3078253032580A007370662A
:1001F0002074657374206F662025253023583A20BB
:10020000253032582C253034582C253038582C25A0
:100210003038580A007370662074657374206F66F6
:1002200020252530783A202530782C2530782C254B
:1002300030782C2530780A007370662074657374EA
:10024000206F66202525783A2025782C25782C25C6
:10025000782C25780A007370662074657374206F9B
:100260006620252523733A20272535732C253473E2
:100270002C2533732C253273270A00737066207483
:10028000657374206F66202525733A2025732C250D
:10029000732C25732C25730A0050524F4752414D41
:1002A000204D454D4F52590073706620746573742C
:1002B000206F66202525733A2025732C25732C2565
:1002C000732C25730A007370662074657374206F35
:1002D00066202525633A2025632C25632C25632C75
:1002E00025630A007370662074657374206F66203E
:1002F0002525633A2025632C25632C25632C256353
:100300000A007370662074657374206F66206573CD
:10031000636170653A5C2022312C09322C332C2524
:10032000252C34220D0A000129022904290829104C
:10033000292029402980290123022304230823108E
:1003400023202340238023802640262026102604B5
:1003500026000100008503120002000097034300FD
:10036000030000DA030401030904DE031802030991
:1003700004F803160303090410040C0001C1020170
:1003800080260181261201000202000020C016838F
:100390000400010102030109024300020100C0320E
:1003A00009040000010202010005240010010524D7
:1003B000010001042402060524060001070582034A
:1003C00008004009040100020A00000007050302BA
:1003D000200000070584022000000403090418031C
:1003E0005400650065006E007300790064007500BC
:1003F00069006E006F0000001603550053004200B4
:100400002000530065007200690061006C0000006C
:100410000C03310032003300340035000000EB08DB
:10042000F10C11241FBECFEFD2E0DEBFCDBF11E033
:10043000A0E0B1E0E6E1F2E202C005900D92A03941
:10044000B107D9F712E0A0E9B1E001C01D92AC31CB
:10045000B107E1F714E0C2E2D4E004C02297FE0144
:100460000E94F110CE31D107C9F752D70C9409116F
:10047000C7CDFB01DC0102C001900D9241505040FC
:10048000D8F708956817790768F4FB01DC01E40FD9
:10049000F51FA40FB51F02C002900E9241505040AC
:1004A000D8F70895E6CFDC0101C06D93415050406C
:1004B000E0F70895DC016C9161566A3108F0605EE6
:1004C0006F5B6D93C1F70895FB019F01E894423083
:1004D000C4F04532B4F44A3029F497FB1EF49095E9
:1004E00081959F4F642F77270E94F510805D8A3396
:1004F0000CF0895D8193CB010097A1F716F45DE2C2
:1005000051931082C90100C0DC01FC01672F719179
:100510007723E1F7329704C07C916D9370836291E9
:10052000AE17BF07C8F308950F93FA019B01442744
:1005300037FD4095542FEA30F10521F4BA01A901A5
:10054000BCD705C0BA01A9012E2F00E02BD70F910F
:100550000895EF92FF920F931F93CF93DF937C0147
:10056000DB010D900020E9F71197A61BB70BEC01FA
:10057000E881F9810280F381E02DAD0109958C01BC
:10058000C701F4D6080F191FC801DF91CF911F9141
:100590000F91FF90EF9008954F925F926F927F922C
:1005A0008F929F92AF92BF92CF92DF92EF92FF9283
:1005B0000F931F93DF93CF93CDB7DEB7CF54D040C7
:1005C0000FB6F894DEBF0FBECDBF81E991E071D5C3
:1005D000892B09F43BC081E991E08CD5082F1127C4
:1005E00007FD109581E991E0B8014AE050E09CDFF9
:1005F000E0919101F09192010190F081E02D81E96B
:1006000091E060E2099581E991E0B80140E150E0B4
:100610008BDF81E991E0AAD686E092E0B8014AE05A
:1006200050E082DFE0910602F09107020190F08134
:10063000E02D86E092E060E2099586E092E0B80164
:1006400040E150E071DF86E092E090D686E092E0F3
:100650000E949E0B892B19F500C586E092E00E944E
:10066000D70B082F112707FD109586E092E0B801FF
:100670004AE050E059DFE0910602F0910702019054
:10068000F081E02D86E092E060E2099586E092E05C
:10069000B80140E150E048DF86E092E067D686E0AE
:1006A00092E00E949E0B892BC1F6DE011196ECE2CE
:1006B000F1E085E001900D928150E1F700D000D08B
:1006C00006E012E0ADB7BEB712961C930E931197D9
:1006D00082E093E014969C938E931397FFD60F902D
:1006E0000F900F900F90AC01662757FD6095762F05
:1006F000C801E3D6C80160E071E02BDF50E4A52E0D
:100700005CE9B52EC5010197F1F7EDB7FEB73C974F
:100710000FB6F894FEBF0FBEEDBF3196ADB7BEB7B2
:1007200012961C930E93119784EE92E0938382832A
:1007300081E490E09583848382E490E097838683CC
:1007400083E490E09187808781E290E093878287BD
:10075000C5D6EDB7FEB73C960FB6F894FEBF0FBEF8
:10076000EDBFAC01662757FD6095762FC801A5D671
:10077000C80160E071E0EDDEC5010197F1F780E9A5
:1007800091E060E070E08ED4D82E80E991E061E0E5
:1007900070E088D4E82E80E991E062E070E082D4D5
:1007A000F82E80E991E063E070E07CD42DB73EB78D
:1007B0002C5030400FB6F8943EBF0FBE2DBFEDB7A2
:1007C000FEB73196ADB7BEB712961C930E93119734
:1007D00026EC32E033832283D4821582E6821782AC
:1007E000F08611868287138679D6EDB7FEB73C96E0
:1007F0000FB6F894FEBF0FBEEDBFAC01662757FDE4
:100800006095762FC80159D6C80160E071E0A1DE7D
:10081000C5010197F1F72DB73EB72C5030400FB608
:10082000F8943EBF0FBE2DBFEDB7FEB73196ADB702
:10083000BEB712961C930E93119788EA92E09383A9
:100840008283CE0101969583848380E191E0978332
:10085000868384E191E09187808789E992E093879C
:1008600082873CD66C01EE24D7FCE094FE2CEDB7D9
:10087000FEB73C960FB6F894FEBF0FBEEDBFC801A1
:10088000B701A6011AD6C80160E071E062DEC501B9
:100890000197F1F7C801B701A6010FD6C80160E0C2
:1008A00071E057DE2DB73EB72C5030400FB6F894AC
:1008B0003EBF0FBE2DBFEDB7FEB73196ADB7BEB789
:1008C00012961C930E9311978BE792E09383828389
:1008D00088E191E0958384838AE191E09783868320
:1008E0008CE191E0918780878EE191E09387828708
:1008F000F5D5EDB7FEB73C960FB6F894FEBF0FBE28
:10090000EDBFAC01662757FD6095762FC801D5D5A0
:10091000C80160E071E01DDEC5010197F1F72DB758
:100920003EB72C5030400FB6F8943EBF0FBE2DBFDF
:10093000EDB7FEB73196ADB7BEB712961C930E93C6
:10094000119786E592E09383828380E291E095831C
:10095000848383E291E09783868386E291E09187A6
:10096000808789E291E093878287B8D5EDB7FEB79B
:100970003C960FB6F894FEBF0FBEEDBFAC016627E4
:1009800057FD6095762FC80198D5C80160E071E0E9
:10099000E0DDC5010197F1F780E991E060E070E0EA
:1009A00081D3F82E80E991E061E070E07BD3C82E1E
:1009B00080E991E062E070E075D3D82E80E991E0A3
:1009C00063E070E06FD3E82E2DB73EB72C50304077
:1009D0000FB6F8943EBF0FBE2DBFEDB7FEB73196F0
:1009E000ADB7BEB712961C930E93119788E392E0B1
:1009F00093838283F4821582C6821782D086118601
:100A0000E28613866BD5EDB7FEB73C960FB6F89429
:100A1000FEBF0FBEEDBFAC01662757FD6095762F78
:100A2000C8014BD5C80160E071E093DDC5010197B5
:100A3000F1F72DB73EB72C5030400FB6F8943EBFBB
:100A40000FBE2DBFEDB7FEB73196ADB7BEB712964C
:100A50001C930E93119785E192E093838283F48235
:100A60001582C6821782D0861186E286138636D515
:100A7000EDB7FEB73C960FB6F894FEBF0FBEEDBFC4
:100A8000AC01662757FD6095762FC80116D5C801C1
:100A900060E071E05EDDC5010197F1F72DB73EB76B
:100AA0002C5030400FB6F8943EBF0FBE2DBFEDB7AF
:100AB000FEB73196ADB7BEB712961C930E93119741
:100AC0008DEE91E093838283F4821582C682178231
:100AD000D0861186E286138601D5EDB7FEB73C9627
:100AE0000FB6F894FEBF0FBEEDBFAC01662757FDF1
:100AF0006095762FC801E1D4C80160E071E029DD7E
:100B0000C5010197F1F72DB73EB72C5030400FB615
:100B1000F8943EBF0FBE2DBFEDB7FEB73196ADB70F
:100B2000BEB712961C930E9311978BEB91E09383B3
:100B30008283F4821582C6821782D0861186E2866D
:100B40001386CCD4EDB7FEB73C960FB6F894FEBF33
:100B50000FBEEDBFAC01662757FD6095762FC8012B
:100B6000ACD4C80160E071E0F4DCC5010197F1F795
:100B70002DB73EB72C5030400FB6F8943EBF0FBE95
:100B80002DBFEDB7FEB73196ADB7BEB712961C9329
:100B90000E93119788E991E093838283F482158202
:100BA000C6821782D0861186E286138697D4EDB767
:100BB000FEB73C960FB6F894FEBF0FBEEDBFAC017A
:100BC000662757FD6095762FC80177D4C80160E08D
:100BD00071E0BFDCC5010197F1F72DB73EB72C508E
:100BE00030400FB6F8943EBF0FBE2DBFEDB7FEB735
:100BF0003196ADB7BEB712961C930E9311978AE744
:100C000091E093838283F4821582C6821782D08614
:100C10001186E286138662D4EDB7FEB73C960FB616
:100C2000F894FEBF0FBEEDBFAC01662757FD60957F
:100C3000762FC80142D4C80160E071E08ADCC501AA
:100C40000197F1F72DB73EB72E5030400FB6F8940C
:100C50003EBF0FBE2DBFEDB7FEB73196ADB7BEB7E5
:100C600012961C930E93119786E591E093838283ED
:100C70008FEF9FEF95838483F682178280E197E25E
:100C80009187808780E090EAAFE0B0E08287938729
:100C9000A487B58723D4EDB7FEB73E960FB6F89478
:100CA000FEBF0FBEEDBFAC01662757FD6095762FE6
:100CB000C80103D4C80160E071E04BDCC5010197B5
:100CC000F1F72DB73EB72C5030400FB6F8943EBF29
:100CD0000FBE2DBFEDB7FEB73196ADB7BEB71296BA
:100CE0001C930E93119783E391E093838283F482A4
:100CF0001582C6821782D0861186E2861386EED3CD
:100D0000EDB7FEB73C960FB6F894FEBF0FBEEDBF31
:100D1000AC01662757FD6095762FC801CED3C80178
:100D200060E071E016DCC5010197F1F72DB73EB721
:100D30002C5030400FB6F8943EBF0FBE2DBFEDB71C
:100D4000FEB73196ADB7BEB712961C930E931197AE
:100D500086E091E093838283F4821582C6821782B3
:100D6000D0861186E2861386B9D3EDB7FEB73C96DE
:100D70000FB6F894FEBF0FBEEDBFAC01662757FD5E
:100D80006095762FC80199D3C80160E071E0E1DB7E
:100D9000C5010197F1F72DB73EB72C5030400FB683
:100DA000F8943EBF0FBE2DBFEDB7FEB73196ADB77D
:100DB000BEB712961C930E93119784ED90E0938327
:100DC0008283F4821582C6821782D0861186E286DB
:100DD000138684D3EDB7FEB73C960FB6F894FEBFEA
:100DE0000FBEEDBFAC01662757FD6095762FC80199
:100DF00064D3C80160E071E0ACDBDE015A96E9E340
:100E0000F1E086E301900D928150E1F720E030E0BF
:100E100040E0DE0116960FC0892F840D819308945F
:100E2000411C511C8AE048165104B1F72F5F3F4F17
:100E3000405E403469F0C9016AE070E00E94BB1076
:100E4000FD01E80FF91F44245524942F9F5BE4CF44
:100E5000ADB7BEB718970FB6F894BEBF0FBEADBF03
:100E6000EDB7FEB7319606E012E012961C930E9392
:100E700011978FEC90E0938382834CE0642E712C69
:100E8000758264823BE2A32EB12CB782A68226D360
:100E9000D82E28ECE22E20E0F22EEDB7FEB73196E8
:100EA000ADB7BEB712961C930E931197F382E282F0
:100EB00055824482CE014A96978386830FD3D80EFB
:100EC000EDB7FEB73196ADB7BEB712961C930E9331
:100ED0001197F382E28255824482CE01C5969783B0
:100EE0008683FCD2D80EEDB7FEB73196ADB7BEB74C
:100EF00012961C930E93119783EC90E09383828358
:100F000075826482B782A682E9D2D80E0F900F90C4
:100F1000EDB7FEB73196ADB7BEB712961C930E93E0
:100F2000119780EB90E093838283D4821582D6D28E
:100F300000D0EDB7FEB73196ADB7BEB712961C9391
:100F40000E9311978BEA90E093838283758264827B
:100F50009DE2892E912C97828682C0D2F82E84EA57
:100F6000A82E80E0B82EEDB7FEB73196ADB7BEB76C
:100F700012961C930E931197B382A28255824482DB
:100F8000CE01069697838683A9D2F80EFD0CEDB7A5
:100F9000FEB73196ADB7BEB712961C930E9311975C
:100FA000B382A28255824482CE0140969783868383
:100FB00095D2F80EEDB7FEB73196ADB7BEB7129623
:100FC0001C930E9311978FE990E09383828375822F
:100FD00064829782868282D2F80E0F900F90EDB7CE
:100FE000FEB73196ADB7BEB712961C930E9311970C
:100FF0008CE890E093838283F48215826FD200D0D4
:10100000EDB7FEB73196ADB7BEB712961C930E93EF
:10101000119787E890E09383828375826482978238
:1010200086825CD20F900F90EDB7FEB73196ADB7C8
:10103000BEB712961C930E93119724E730E03383CA
:101040002283F80EF482158249D2EDB7FEB73696A8
:101050000FB6F894FEBF0FBEEDBFC15BDF4F0FB6FA
:10106000F894DEBF0FBECDBFCF91DF911F910F91DE
:10107000FF90EF90DF90CF90BF90AF909F908F90B8
:101080007F906F905F904F90089586E092E040E8E7
:1010900055E260E070E0C3D481E991E060ED70E07A
:1010A0004FEFFDC0F999FECF72BD61BDF89A80B5D2
:1010B00008959091C4018091C501292F30E0482FF7
:1010C00050E0981710F4205C3F4F241B350BC901EA
:1010D00008958091C401E091C5018E1719F4EFEFD6
:1010E000FFEF06C0F0E0EA53FE4F8081E82FF0E00A
:1010F000CF0108959091C4018091C501981719F40A
:101100002FEF3FEF0FC02091C5012F5F203408F073
:1011100020E0E22FF0E0EA53FE4F80812093C501EA
:10112000282F30E0C9010895809199018823E1F7C3
:1011300008951F920F920FB60F9211242F938F9341
:101140009F93EF93FF932091CE009091C4019F5FF6
:10115000903408F090E08091C501981739F0E92F9C
:10116000F0E0EA53FE4F20839093C401FF91EF918A
:101170009F918F912F910F900FBE0F901F901895F8
:101180001F920F920FB60F9211248F939F93EF939C
:10119000FF9390919A0180919B01981721F488ED1B
:1011A0008093C9000FC090919B019F5F983208F017
:1011B00090E0E92FF0E0E456FE4F80818093CE006E
:1011C00090939B01FF91EF919F918F910F900FBE94
:1011D0000F901F9018951092930188EE93E0A0E075
:1011E000B0E08093940190939501A0939601B09301
:1011F00097011092980183E791E090939201809378
:10120000910108951F920F920FB60F9211248F93A0
:10121000EF93FF9310929901809131018F3F29F054
:1012200080913101E82FF0E063D4FF91EF918F912D
:101230000F900FBE0F901F901895FC018091C90070
:1012400083FD05C081E0828320E030E026C08091EC
:1012500031018F3F49F080919901882329F48091D1
:101260003101E82FF0E03ED490919A019F5F9832CF
:1012700008F090E080919B018917E1F3E92FF0E0FD
:10128000E456FE4F608381E08093990190939A0128
:1012900088EF8093C90021E030E0C90108951F93D1
:1012A000CF93DF93EB01142F409331014F3F29F08F
:1012B000842F07D4E12FF0E01BD4C0FF08C080E1E9
:1012C000C130D80720F482E08093C80004C0109297
:1012D000C800D695C7952197D093CD00C093CC0078
:1012E0008091C90083FD10C01092C4011092C50105
:1012F00010929A0110929B011092990186E08093BE
:10130000CA0088ED8093C900DF91CF911F910895A5
:1013100000D5BBDE41D9FECFCF92DF92EF92FF9294
:101320000F931F93CF93DF937C016B018A01C0E081
:10133000D0E00FC0D6016D916D01D701ED91FC9108
:101340000190F081E02DC7010995C80FD91F015008
:1013500010400115110571F7CE01DF91CF911F915A
:101360000F91FF90EF90DF90CF900895DF93CF9390
:1013700000D0CDB7DEB7DC018DE089838AE08A83B7
:10138000ED91FC9111970280F381E02DCD01BE011A
:101390006F5F7F4F42E050E009950F900F90CF9123
:1013A000DF9108954F925F926F927F928F929F92FA
:1013B000AF92BF92CF92DF92EF92FF920F931F9363
:1013C000DF93CF93CDB7DEB7A1970FB6F894DEBF0A
:1013D0000FBECDBF3C016A017B01222349F4DC0131
:1013E000ED91FC910190F081E02D642F09954EC0A4
:1013F000213009F42AE0C114D104E104F10421F4FC
:1014000080E389A310E227C010E2822E9924AA2447
:10141000BB242E010894411C511CC701B601A50133
:101420009401BBD66A3010F4605D01C0695CF201C2
:10143000E10FF11D6083C701B601A5019401ADD68E
:10144000C901DA016C017D01C114D104E104F10488
:1014500011F01150E2CF002331F01150FE01E10FE5
:10146000F11D8DE28183812F90E0D301ED91FC91FC
:10147000BE016F5F7F4F680F791F41E250E0481B4C
:10148000590B0280F381E02DC3010995A1960FB697
:10149000F894DEBF0FBECDBFCF91DF911F910F91AA
:1014A000FF90EF90DF90CF90BF90AF909F908F9084
:1014B0007F906F905F904F9008950F9377FD02C0DB
:1014C00000E008C070956095509541955F4F6F4F53
:1014D0007F4F0DE22AE066DF0F9108952F923F9231
:1014E0004F925F926F927F928F929F92AF92BF9234
:1014F000CF92DF92EF92FF920F931F93DF93CF93E0
:10150000CDB7DEB72A970FB6F894DEBF0FBECDBFBA
:101510004F8C58A089A19AA1FC013F018E010D5D5D
:101520001F4FEE247AE0272E5E010894A11CB11C07
:10153000F3018491882309F4CCC00894611C711CC8
:10154000D501E22D1D92EA95E9F7853209F0A6C092
:10155000CC24DD24FF2460E2362E8AC08983A0C01B
:10156000D801FC900E5F1F4F83C0C82EDD24BFE062
:10157000CB22DD247DC08062833741F0883709F4B7
:1015800040C08336C1F15AE0F52E3DC042E0842EC2
:10159000912C800E911EF80160817181FF2069F00D
:1015A000FB01DF010D900020E9F71197AE1BBF0B87
:1015B0008F2D90E0A817B90738F4FB0101900020A7
:1015C000E9F73197FE2EF61AEF0CD201ED91FC915E
:1015D0000280F381E02DC2014F2D50E00995F60104
:1015E000EF19F1091E161F060CF08EC0C50160E24E
:1015F00070E0AF0138C0F801808189830E5F1F4F12
:101600004FC030E1F32E22E0822E912C800E911EED
:10161000D8018D919C91B5014F2D50E00E9464023C
:10162000B0E1FB1619F4C5010E945A02F5010190C0
:101630000020E9F73197EA19FB0986010E1B1F0B01
:10164000101611060CF060C03196C501800F911F75
:10165000B501AF010E944202232D332727FD3095AB
:10166000C501B901A8010E9453024EC090E3392E72
:10167000F3010894611C711C8491882389F08033E4
:10168000A9F3813338F4833209F46ACF853209F043
:1016900072CF64CF8A3308F06ECF67CF8983FF247F
:1016A000D5010D900020E9F71197AA19BB09EA0EA0
:1016B000F20180819181FC0122813381C201B50157
:1016C000AD01F9010995FA948F2D8F5F823040F7B3
:1016D0002FCF8E2D90E02A960FB6F894DEBF0FBE66
:1016E000CDBFCF91DF911F910F91FF90EF90DF90D1
:1016F000CF90BF90AF909F908F907F906F905F90B2
:101700004F903F902F9008958401C9CFDF93CF93DE
:101710000F92CDB7DEB7FC016983A081B18112962B
:101720002D913C911397BE016F5F7F4F41E050E0D8
:10173000F90109950F90CF91DF910895FC019FB7B2
:10174000F89480911C02882311F420E010C083E0FB
:101750008093E9002091F200222349F48091E8006F
:1017600082FF05C085FD03C08BE68093E8009FBF24
:101770008085918597FD03C02F3F09F02F5F822F51
:1017800090E00895CF93DF93EC018885998597FFCA
:1017900009C0E881F9810680F781E02DCE01099525
:1017A0009987888788859985DF91CF910895FC0175
:1017B0002085318537FD05C08FEF9FEF91878087AA
:1017C00022C02FB7F89480911C02882369F083E02F
:1017D0008093E9009BE68091E80085FD09C082FFC7
:1017E00003C09093E800F7CF2FBF2FEF3FEF0CC05F
:1017F0009091F1008091E80085FD03C08BE6809315
:10180000E8002FBF292F30E0C90108959FB7F89451
:1018100080911C02882361F080911902882341F095
:1018200084E08093E9008AE38093E8001092190233
:101830009FBF08956F927F928F929F92AF92BF92B7
:10184000CF92DF92EF92FF920F931F93CF93DF938C
:101850003C018B0180911C02882329F481E0D30193
:1018600012968C9311C03FB7F89484E08093E900FE
:1018700080911B02882369F08091E80085FD07C0F4
:101880003FBF81E0E3018A83882499249AC01092A3
:101890001B0288249924F4E0AF2EE0E2BE2E71EF03
:1018A000E72EF12C6AE3C62E23E0D22E85C090915C
:1018B000E400915F8091E80085FD19C03FBF8091F1
:1018C000E400891731F481E080931B02F3018283E5
:1018D00078C080911C02882329F481E0D3011296FC
:1018E0008C936FC03FB7F894A092E900E3CF80914A
:1018F000F2002B2D281B822F90E04817590708F47F
:10190000242F622F70E0E801D701E0E2E21BE03211
:1019100028F4EE0FFF27E157F34F099440C0899157
:101920008C9389918C9389918C9389918C938991D3
:101930008C9389918C9389918C9389918C938991C3
:101940008C9389918C9389918C9389918C938991B3
:101950008C9389918C9389918C9389918C938991A3
:101960008C9389918C9389918C9389918C93899193
:101970008C9389918C9389918C9389918C93899183
:101980008C9389918C9389918C9389918C93899173
:101990008C9389918C9389918C9389918C938E01EE
:1019A0008091E80085FD02C0C092E800461B570BFD
:1019B000860E971ED09219024115510509F077CF76
:1019C0003FBFC401DF91CF911F910F91FF90EF9026
:1019D000DF90CF90BF90AF909F908F907F906F904F
:1019E0000895E6E0F2E08AE0DF011D928A95E9F7CA
:1019F0001092080288EE93E0A0E0B0E08093090224
:101A000090930A02A0930B02B0930C0210920D0265
:101A100083E891E0909307028093060208952FEFE8
:101A20003FEFFC01318720878BD10FB6F89480916E
:101A3000140290911502A0911602B09117020FBEE8
:101A4000AC0180911C02882329F068EC70E080E0F2
:101A500090E02EC180911D02882309F10FB6F89401
:101A60008091140290911502A0911602B091170274
:101A70000FBE9C0110C00FB6F89480911402909193
:101A80001502A0911602B09117020FBE821B930B94
:101A90008B3F9105A8F480911D02882361F70FB652
:101AA000F8948091140290911502A0911602B091C1
:101AB00017020FBE841B950B855C994008F4C1CFBB
:101AC0000895853170F4E7E2F3E0880FE80FF11D27
:101AD0009591E491F0E02FB7F8948181892B81836F
:101AE0002FBF0895E53150F4EE0FE158F24F0994FD
:101AF000E53120F4EE0FE755F24F09940895589A16
:101B000052C0599A08955A9A08955B9A08955C9A1A
:101B100008955D9A08955E9A08955F9A0895289AA7
:101B20000895299A08952A9A08952B9A08952C9A2F
:101B300008952D9A08952E9A08952F9A44C0479A91
:101B40000895469A34C0459A38C0449A0895429AF6
:101B50000895589828C0599808955A9808955B9800
:101B600008955C9808955D9808955E9808955F982B
:101B7000089528980895299808952A9808952B98EB
:101B800008952C9808952D9808952E9808952F98CB
:101B90001AC04798089546980AC045980EC04498C0
:101BA000089542980895E4B5EF7DE4BD0895E0916D
:101BB0008000EF77E09380000895E0918000EF7D52
:101BC000E09380000895E0918000E77FE09380003B
:101BD00008951DBA109268001CBC10BE1FBA109266
:101BE0006E0010926F001092C90014B817B81AB89E
:101BF00015B818B81BB80895F89480E29EE40197D0
:101C0000F1F781E08093E00080E28093D80080E6E5
:101C10009AEE0197F1F7DDDF0C94001FFFCFF894E7
:101C2000D8DF80E69AEE0197F1F70C940000FFCF21
:101C30008F938FB78F93809118028D5F8D37D0F47B
:101C400080931802809114028F5F80931402D8F061
:101C5000809115028F4F80931502A8F08091160293
:101C60008F4F8093160278F0809117028F4F8093E8
:101C7000170209C08D5780931802809114028E5F5D
:101C80008093140228F7809110028C5F80931002D9
:101C900058F0809111028F4F8093110228F08091AB
:101CA00012028F4F809312028F918FBF8F911895E0
:101CB0009B01AC0114D0FB010CC011D06E1B7F0B3B
:101CC000685E7340D0F32150304040405040E851AE
:101CD000FC4F211531054105510579F708950FB6DF
:101CE000F89466B515B2709110028091110290912E
:101CF00012020FBE10FE05C06F3F19F07C5F8F4FC0
:101D00009F4F11240024660F001C660F001C7029D1
:101D10000895F894E1E6F0E080E88083108283E0A3
:101D200084BD85BDEEE6F0E080818160808381E046
:101D30008093800082E08093810002D0789408959F
:101D40008091D80087FF02C085FF18C080EA809389
:101D5000D80086E089BD09B400FEFDCF80E88093FD
:101D6000D8001092E00010921C0210921D021092F6
:101D70001E021092E1008DE08093E20008951F9210
:101D80000F920FB60F9211242F933F934F935F93AF
:101D90006F937F938F939F93AF93BF93EF93FF9333
:101DA0001092E9008091E80083FF57C12091F10073
:101DB0009091F1004091F1005091F1006091F1009B
:101DC0007091F100A091F100B091F10082EF809349
:101DD000E800963009F044C0E1E5F3E020E08591A9
:101DE00095918417950711F0359617C085919591B7
:101DF0008617970711F0339610C0259135914491BD
:101E0000CD01AF3FB10519F010F08FEF90E08417CE
:101E100008F4482FF9015EEF04C02F5F2630F9F671
:101E20001CC18091E800282F30E0C90185709070B6
:101E3000892BB9F322FD14C1242F413208F020E28E
:101E4000922F04C085918093F10091509923D1F78E
:101E5000421B5093E800442321F7203211F300C1C4
:101E6000953061F48EEF8093E8008091E80080FF68
:101E7000FCCF842F80688093E300F2C0993009F58D
:101E8000222309F0EAC040931C0210921E02109215
:101E900019028EEF8093E800EBE7F3E091E0909376
:101EA000E90085918093EB00882331F08591809340
:101EB000EC0085918093ED009F5F953081F78EE176
:101EC000C7C0983061F4203809F0C7C08091E8009D
:101ED00080FFFCCF80911C028093F10096C091326C
:101EE000A9F4213A09F0B9C08091E80080FFFCCF45
:101EF00020E030E0F901EE5CFE4F80818093F1003C
:101F00002F5F3F4F27303105A9F77FC0903209F08E
:101F10004BC0213209F0A1C08091E80082FFFCCFC4
:101F200020E030E0F901EE5CFE4F8091F10080830B
:101F30002F5F3F4F27303105A9F78BEF8093E800E3
:101F40008EEF8093E8008091320190913301A0914F
:101F50003401B091350186389105A105B10519F418
:101F60008FE080931A028091320190913301A09109
:101F70003401B091350186399105A105B10509F00B
:101F80006FC084E08093E9002FEF06C02093E80043
:101F90008091E80082FDFCCF8091EE0090E083709C
:101FA0009070892B99F73BDE923251F4213209F07F
:101FB00054C040931E028091E80080FFFCCF25C0F2
:101FC000933241F4213209F048C08091E80080FF4B
:101FD000FCCF1BC09923E9F48091E80080FFFCCF7F
:101FE000223811F080E00DC06093E9008091EB0091
:101FF00090E025E0969587952A95E1F781701092FB
:10200000E9008093F1001092F1008EEF8093E800D8
:1020100027C0913011F0933001F52230F1F4452BB7
:10202000E1F4262F2F77822F81508630B0F48EEF87
:102030008093E8002093E900933079F089E1809360
:10204000EB0081E090E002C0880F991F2A95E2F72B
:102050008093EA001092EA0003C081E28093EB00D3
:10206000FF91EF91BF91AF919F918F917F916F9170
:102070005F914F913F912F910F900FBE0F901F9046
:1020800018951F920F920FB60F9211242F933F9322
:102090004F935F936F937F938F939F93AF93BF9370
:1020A000EF93FF938091E1001092E100982F83FF5E
:1020B00011C01092E90081E08093EB001092EC00D7
:1020C00082E28093ED0088E08093F00010921C0281
:1020D00010921E0292FF1DC080911C028823C9F03D
:1020E00080911902882359F0815080931902882326
:1020F00031F484E08093E9008AE38093E8008091E2
:102100001A02882331F0815080931A02882309F43F
:1021100073DD90FF0CC080E18093E20010921C02FE
:1021200081E080931D0280EA8093D80019BC8091E1
:102130001D02882379F094FF0DC086E089BD09B4A3
:1021400000FEFDCF80E88093D8008DE08093E20010
:1021500010921D02FF91EF91BF91AF919F918F91CE
:102160007F916F915F914F913F912F910F900FBE93
:102170000F901F9018955527002480FF02C0060E6F
:10218000571F660F771F6115710521F0969587958A
:10219000009799F7952F802D0895A1E21A2EAA1B7A
:1021A000BB1BFD010DC0AA1FBB1FEE1FFF1FA21707
:1021B000B307E407F50720F0A21BB30BE40BF50B04
:1021C000661F771F881F991F1A9469F7609570958D
:1021D000809590959B01AC01BD01CF010895EE0F54
:1021E000FF1F0590F491E02D0994AA1BBB1B51E140
:1021F00007C0AA1FBB1FA617B70710F0A61BB70B77
:10220000881F991F5A95A9F780959095BC01CD011B
:062210000895F894FFCFD1
:10221600206368617273207072696E746564210050
:102226006476630079657300610062006300640090
:1022360061780062780063780064780078797A3F84
:1022460000FF00E1000000000841424344454647C4
:1022560048494A4B4C4D4E4F505152535455565780
:1022660058595A006162636465666768696A6B6C8F
:102276006D6E6F707172737475767778797A000007
:102286000000001D098C0959087A0869089408009D
:10229600000000860B1A0C9E0BD70BC20B060C0017
:00000001FF
