:10000000EAC0000010C100000EC100000CC10000D9
:100010000AC1000008C1000006C1000004C10000C0
:1000200002C1000000C10000FEC000000C94650F7A
:100030000C94E30DF8C00000F6C00000F4C000000E
:10004000F2C00000F0C00000EEC00000ECC00000F4
:10005000EAC000000C943C0DE6C000000C941F1098
:100060000C9446100C948810DEC00000DCC0000028
:10007000DAC000002330783000233078300041644B
:100080006166727569742E636F6D005553422F530C
:10009000657269616C204C43440020636F6E737419
:1000A00072617374203D200020626175642000201D
:1000B000636F6E737472617374203D2000206261FF
:1000C00075642000436F6E737472617374203D20F9
:1000D0000020626175642000012902290429082991
:1000E00010292029402980290123022304230823E1
:1000F00010232023402380238026402620261026FC
:1001000004260001000036011200020000480143ED
:10011000000300008B0104010309048F011802038E
:100120000904A9011603030904C1010C0001C1025D
:100130000180260181261201000202000020C01663
:10014000830400010102030109024300020100C00F
:10015000320904000001020201000524001001051B
:10016000240100010424020605240600010705827B
:100170000308004009040100020A0000000705030B
:10018000022000000705840220000004030904186F
:10019000035400650065006E00730079006400750B
:1001A0000069006E006F0000001603550053004206
:1001B000002000530065007200690061006C0000BF
:1001C000000C033100320033003400350000000021
:1001D00065017110A81311241FBECFEFD2E0DEBF5E
:1001E000CDBF11E0A0E0B1E0E6ECF9E202C005907D
:1001F0000D92AE33B107D9F712E0AEE3B1E001C022
:100200001D92AB33B107E1F711E0C6EDD1E004C0B8
:100210002297FE010E94DD14C03DD107C9F70E945C
:100220000E110C94E114ECCEFB01DC0102C0059030
:100230000D9241505040D8F70895FC0105900020E0
:10024000E9F7809590958E0F9F1F0895509A5898C2
:1002500084B58F7D84BD3D9A10928B0010928A00E8
:10026000E0E8F0E0808180628083509A10928900FB
:1002700010928800808180688083089586B126B1BD
:10028000992787FD90958827990F881F9927880FB0
:10029000991F30E044E0369527954A95E1F72170A3
:1002A000282B86B1220F90E0969587959695879595
:1002B0008170282B83B1220F8170282B809104013B
:1002C000282382958F7082270895AF92CF92EF9264
:1002D0000F931F938EE391E06CE04DE02EE001E080
:1002E000F4E0EF2EE5E0CE2E76E0A72E0E94FF0B85
:1002F000E2E5F1E088E0DF011D928A95E9F71092CE
:10030000540188EE93E0A0E0B0E080935501909313
:100310005601A0935701B09358011092590181E200
:1003200091E090935301809352010FEA11E0C801CC
:1003300060E070E00E943C0C80935A01C80161E0CB
:1003400070E00E943C0C80935B011F910F91EF9035
:10035000CF90AF9008958FEA91E069E670E00C9439
:100360003C0CCF92DF92EF92FF920F931F931FEA04
:10037000C12E11E0D12EC6016AE670E00E943C0C4D
:10038000E82EFF2400E010E0102F0F2DFE2CEE24AD
:10039000C6016BE670E00E943C0C90E0A0E0B0E08B
:1003A000E82AF92A0A2B1B2B102F0F2DFE2CEE24E6
:1003B000C6016CE670E00E943C0C282F30E040E063
:1003C00050E02E293F29402B512BB901CA011F9122
:1003D0000F91FF90EF90DF90CF9008958FEA91E01A
:1003E0006DE670E00C943C0CAF92BF92CF92DF921E
:1003F000EF92FF920F93C82E91E3A92E92E0B92EAF
:10040000C50169E770E00E94E511DD24EE24FF24B8
:10041000C501B701A60120E100E00E945A11C50103
:100420000E943E1182E5A82E81E0B82EC50164E746
:1004300070E00E94E511C501B701A60120E10E940C
:100440005A11C5010E943E110F91FF90EF90DF906D
:10045000CF90BF90AF9008950F932AE000E00E94E4
:100460005A110F9108950F93462F50E060E070E00D
:100470002AE000E00E945A110F9108950F931F93F4
:10048000182F062F8FEA91E061E070E00E943C0C8B
:10049000081739F08FEA91E061E070E0402F0E9488
:1004A000430C8FEA91E060E070E00E943C0C18176A
:1004B00039F08FEA91E060E070E0412F0E94430C38
:1004C00010935A0100935B011F910F910895482FDB
:1004D0008FEA91E069E670E00C94430C1F93182FAB
:1004E0007DDF181739F08FEA91E06DE670E0412F5B
:1004F0000E94430C279A8FEF90E0811B9109909303
:100500008D0080938C0080918000886080938000B3
:100510001F910895EF92FF920F931F93E82EF62EEE
:1005200081E06817B9F0681730F0EE2DF0E080E157
:10053000681729F51EC00E2D10E000501F4FF8015E
:1005400080810E944F0CF8018081E82FF0E00E942A
:100550009C0C1CC00E2D10E000501F4FF801808134
:100560000E944F0CF8018081E82FF0E00E94960C69
:100570000DC0E050FF4F80810E94600C07C0E0502A
:10058000FF4F80810E94790C21E1F22E0E2D10E0A8
:1005900001551E4F8FEA91E0B8010E943C0CF816FD
:1005A00031F08FEA91E0B8014F2D0E94430C1F916A
:1005B0000F91FF90EF9008952F923F924F925F928C
:1005C0006F927F928F929F92AF92BF92CF92DF9263
:1005D000EF92FF920F931F93DF93CF9300D000D041
:1005E000CDB7DEB7182F562E242E8FEA91E064E6A1
:1005F00070E00E943C0C181739F08FEA91E064E635
:1006000070E0412F0E94430C8FEA91E065E670E0B4
:100610000E943C0C581639F08FEA91E065E670E0D4
:10062000452D0E94430C8FEA91E066E670E00E943F
:100630003C0C281639F08FEA91E066E670E0422D16
:100640000E94430C8FEA91E068E670E00E943C0C47
:10065000982E00D000D0612F70E080E090E024E67A
:1006600030E040E050E0ADB7BEB711962D933D931A
:100670004D935C93149720E030E040E050E0EFEFC2
:10068000EE2EF12C012D112DAA24BB2465010E9410
:100690001814662E622D70E080E090E02EEB30E0C2
:1006A00040E050E0EDB7FEB72183328343835483AB
:1006B00020E030E040E050E00E941814262E292D62
:1006C00030E040E050E029833A834B835C83772419
:1006D00088249924ADB7BEB711962D933D934D93C1
:1006E0005C931497C401B30120E030E040E050E097
:1006F0000E941814662E652D70E080E090E029813C
:100700003A814B815C81ADB7BEB711962D933D9375
:100710004D935C93149720E030E040E050E00E945D
:100720001814962E33244424552429813A814B8170
:100730005C81ADB7BEB711962D933D934D935C93FD
:100740001497C201B10120E030E040E050E00E9487
:100750001814509A0F900F900F900F90662021F070
:1007600068BC84B5806203C0589884B58F7D84BD11
:100770003D9A892D90E090938B0080938A00809120
:100780008000806280938000509A862F90E0909342
:100790008900809388008091800080688093800029
:1007A0008FE786BD109285001092840081E085BDA0
:1007B000809381000F900F900F900F90CF91DF9159
:1007C0001F910F91FF90EF90DF90CF90BF90AF906F
:1007D0009F908F907F906F905F904F903F902F9061
:1007E00008950F931F93182F8FEA91E068E670E049
:1007F0000E943C0C181739F08FEA91E068E670E02F
:10080000412F0E94430C8FEA91E064E670E00E9461
:100810003C0C082F8FEA91E065E670E00E943C0CEA
:10082000182F8FEA91E066E670E00E943C0C482F9A
:10083000802F612FC1DE1F910F9108958FEA91E003
:1008400068E670E00E943C0CCCCFEF92FF920F93D1
:100850001F937B018C0185DD6E157F058007910755
:10086000D1F09801442755278FEA91E06AE670E0BD
:10087000422F0E94430C5527412F302F2F2D8FEAF6
:1008800091E06BE670E0422FFED78FEA91E06CE6D4
:1008900070E04E2DF8D781E392E0B801A7010E94E5
:1008A000C613C801B70196958795779567956058E7
:1008B0007B47814E9F4FA80197010E949E1482E5BD
:1008C00091E0B9014FEF0E94D5105A9A1F910F91F4
:1008D000FF90EF9008950F931F9381E392E00E94A1
:1008E00055128C0182E591E00E94DF0F801791077D
:1008F0002CF481E392E00E94551204C082E591E05D
:100900000E94DF0F1F910F910895E5DF892BE9F316
:1009100081E392E00E945512892B21F081E392E05D
:100920000C948E1282E591E00E94DF0F892B11F466
:1009300080E0089582E591E00C940010CF92DF9260
:10094000EF92FF920F931F93DF93CF93CDB7DEB754
:1009500028970FB6F894DEBF0FBECDBFC82ED62E97
:100960008E010F5F1F4F49E0E42EF12CEC0EFD1EAF
:10097000CCDFF80181938F01EE15FF05C9F7F4E094
:10098000FD1578F48EE391E06C2DAE014F5F5F4F63
:1009900007D68EE391E060915C0140915D014BD6FA
:1009A00029C08D2D90E036E0880F991F3A95E1F728
:1009B0000C2D10E023E0000F111F2A95E1F70259DA
:1009C0001F4F080F191FEE24FF246E010894C11C4D
:1009D000D11CB701600F711FF601EE0DFF1D8FEAEC
:1009E00091E0408150D70894E11CF11C88E0E816A2
:1009F000F10479F728960FB6F894DEBF0FBECDBF8D
:100A0000CF91DF911F910F91FF90EF90DF90CF90EA
:100A100008956F927F928F929F92BF92CF92DF92B2
:100A2000EF92FF920F931F93DF93CF93CDB7DEB773
:100A300028970FB6F894DEBF0FBECDBF8530B0F556
:100A4000082F10E066E0000F111F6A95E1F70259C8
:100A50001F4FBB244E010894811C911C59E0652E48
:100A6000712C6C0E7D1E18C08FEA91E0B70104D77F
:100A7000F60181936F010894E11CF11CE615F7055E
:100A800099F7085F1F4F8EE391E06B2DA40188D585
:100A9000B394F8E0BF1619F064017801E5CF8EE356
:100AA00091E060915C0140915D01C5D528960FB63B
:100AB000F894DEBF0FBECDBFCF91DF911F910F9194
:100AC000FF90EF90DF90CF90BF909F908F907F909E
:100AD0006F900895FF920F931F93FDDE892B09F409
:100AE000F8C213DF182F8E3F09F4FCC08D3049F592
:100AF0001EC0E0913E01F0913F010190F081E02D98
:100B00008EE391E060E2099590915C0180915D0136
:100B1000E92FF0E0EE0FFF1FEE0FFF1FE80FF11DB2
:100B2000E15AFE4F80E280839F5F90935C012091A9
:100B30005A0130E080915C0190E082179307CCF27B
:100B400056C08A3009F4D3C28830C1F580915C0167
:100B5000882321F0815080935C010EC080915A015E
:100B6000815080935C0180915D01882311F4809114
:100B70005B01815080935D018EE391E060915C01A7
:100B800040915D0158D580915D01E0915C01F0E0FC
:100B9000EE0FFF1FEE0FFF1FE80FF11DE15AFE4F92
:100BA00080E28083E0913E01F0913F010190F0816D
:100BB000E02D8EE391E060E20995A3C1E0913E0152
:100BC000F0913F010190F081E02D8EE391E0612FE3
:100BD000099580915D01E0915C01F0E0EE0FFF1F4F
:100BE000EE0FFF1FE80FF11DE15AFE4F10838091B9
:100BF0005C018F5F80935C0190915A01891708F422
:100C000076C210925C0180915D018F5F80935D01DF
:100C100090915B01891708F474C19DDB882309F466
:100C20006EC180915B01482F50E010915A0120E085
:100C300030E0BA016150704000E223C0E92FF0E0DB
:100C40002617370751F4EE0FFF1FEE0FFF1FE20FBD
:100C5000F31FE15AFE4F00830FC0EE0FFF1FEE0F90
:100C6000FF1FDF01A20FB31FA15ABE4FE15AFE4F73
:100C7000E20FF31F81818C939F5F9117F8F22F5F32
:100C80003F4F241735071CF000E010E01EC090E035
:100C9000F4CF8EE391E060E0402FCDD4FF240FC06D
:100CA000EF2DF0E0EE0FFF1FEE0FFF1FE00FF11F23
:100CB000E15AFE4F8EE391E060816BD4F394809112
:100CC0005A01F81668F30F5F1F4F20915B01822FC6
:100CD00090E008171907ECF210925C012150209364
:100CE0005D010FC112DE833509F41DC1843588F51D
:100CF0008A3409F40DC18B34B0F4823409F45AC03B
:100D0000833438F4893309F430C1803409F0EFC1F9
:100D10004FC0873409F489C0883409F456C086343A
:100D200009F0E5C14AC08E3409F46FC18F3438F43C
:100D30008C3409F4ADC08D3408F0C1C0EDC08135EC
:100D400009F470C0823508F06BC0803509F0CFC15E
:100D500039C08A39B8F4883990F5863509F473C1F9
:100D6000873538F4843509F4D7C0853509F0BFC11B
:100D700058C1883571F1883508F473C1813909F09B
:100D8000B6C120C0833C09F47AC1843C38F4803C6D
:100D900009F43EC1813C09F0AAC13DC1813D09F47D
:100DA00087C1823D09F48BC1803D09F0A0C176C1A5
:100DB00000E0D4C043DDA9DD9AC148DA98C1A5DDC1
:100DC00010DD95C1A2DD8ADB92C18EE391E061D492
:100DD00022C08EE391E064D450915B0180915A016E
:100DE00040E0282F30E0220F331F220F331F60E234
:100DF00006C060833496E817F907D9F74F5F4517A7
:100E000050F4842F90E0FC01E15AFE4F820F931FB3
:100E1000815A9E4FF0CF10925C0110925D0167C124
:100E200080E001C081E053DB62C16FDD80935C0133
:100E30006CDD20915C01215020935C01382F3150F2
:100E400030935D0140915A01241788F0822F90E081
:100E5000642F70E00E948A14360F30935D01822F58
:100E600090E0642F70E00E948A1480935C0160918E
:100E70005B0180915D0190E070E00E948A14482F30
:100E800080935D018EE391E060915C01D4D32FC12A
:100E900080915C01882321F0815080935C0131C0F6
:100EA00080915A01815080935C0180915D0188237B
:100EB00011F480915B01815080935D0122C04091CB
:100EC0005C01242F30E080915A0190E001972817AF
:100ED000390724F44F5F40935C0113C010925C010A
:100EE00040915D01242F30E080915B0190E00197FB
:100EF0002817390724F44F5F40935D0102C0109218
:100F00005D018EE391E060915C0140915D01BECF97
:100F10008EE391E07AD3EBC08EE391E07ED38EE353
:100F200091E06DD3E4C08EE391E061D3E0C0EDDCED
:100F3000482F60915A01802F90E070E00E945F146A
:100F4000BC016E5F7F4F610F711D8FEA91E09BD4F2
:100F50001F5F80915A01181750F30F5F80915B015A
:100F6000081708F0C4C010E0F4CFCFDC893221F1BB
:100F70008A3278F4803109F43EC0813120F488301F
:100F800009F0B5C03DC0893189F1823209F0AFC0A6
:100F900028C0833561F0843520F4833309F0A7C07D
:100FA0001BC08736A1F08F3C09F0A1C00BC060EBDD
:100FB00074E080E090E004C060E679E080E090E0DA
:100FC00044DC95C060EC72E180E090E0F9CF60E82D
:100FD00075E280E090E0F4CF60E07BE480E090E0B8
:100FE000EFCF60E870E780E090E0EACF60E076E97C
:100FF00080E090E0E5CF60E071EE80E090E0E0CF4F
:1010000060E072EC81E090E0DBCF7FDC6FEF07C047
:101010007CDCFFDC6CC079DC182F77DC612F8EDC88
:1010200066C073DC482F80910401841739F0409327
:1010300004018FEA91E063EB71E025D41FD980931E
:101040005E01D2D954C061DC8150843008F04FC0B9
:10105000E82FF0E0E050FF4F8081E82FF0E06CD403
:1010600046C053DC8150843008F041C0E82FF0E0E6
:10107000E050FF4F8081E82FF0E058D438C045DCC5
:10108000182F43DC482F1150143088F5612F70E081
:1010900061557E4F8FEA91E0F6D329C036DC082FE8
:1010A00034DC182F32DC482F802F612F85DA1FC0E7
:1010B0002CDC182F2ADC682F812FE0D918C051D9D9
:1010C000AB01BC0182E591E02AE000E00E945A11E8
:1010D0000EC0D4D8982F80915E01981741F090935C
:1010E0005E01892F81D980E49CE90197F1F71F9176
:1010F0000F91FF9008950F931F93CF93DF9331D9F2
:101100006150724C8140904028F060E875E280E0C8
:1011100090E001C026D999DB80915A01853118F001
:1011200084E180935A0180915B01853018F084E05E
:1011300080935B01279A509A3D9A3E9ACFEAD1E07C
:101140008FEA91E0BE0198D3682F9E012F5A822F1B
:10115000E1D9219631E0C33BD30791F78FEA91E0C3
:1011600063EB71E089D38093040188D880935E019A
:101170008EE391E060E142E020E099D2279A82E399
:1011800090E090938D0080938C0080918000886027
:1011900080938000509A8FEF88BD84B5806284BDB3
:1011A0003D9A2FEF30E030938B0020938A0080919E
:1011B0008000806280938000509A30938900209351
:1011C0008800809180008068809380008EE391E0A9
:1011D00067D28EE391E05DD2C4D8AB01BC018EE34F
:1011E00091E03AD98EE391E061ED70E00E94E51163
:1011F0008EE391E060915A0136D9E0913E01F09181
:101200003F010190F081E02D8EE391E068E70995C0
:101210008EE391E060915B0126D98EE391E060E07E
:1012200041E009D28EE391E064EC70E00E94E511A8
:10123000D5D8682F8EE391E016D993D8AB01BC01C5
:1012400082E591E009D982E591E06DEB70E00E94C2
:10125000E51182E591E060915A0105D9E0915201D2
:10126000F09153010190F081E02D82E591E068E773
:10127000099582E591E060915B01F5D882E591E006
:101280006FEA70E00E94E511A9D8682F82E591E02D
:10129000EAD867D8AB01BC0181E392E0DDD881E3F5
:1012A00092E068EA70E00E94E51181E392E06091CB
:1012B0005A01D9D8E0913102F09132020190F081C7
:1012C000E02D81E392E068E7099581E392E0609187
:1012D0005B01C9D881E392E06AE970E00E94E51100
:1012E0007DD8682F81E392E0BED884EC99E020E9B4
:1012F00031E0F9013197F1F70197D9F78EE391E0E9
:1013000060915A0140915B0120E0D1D167D8E6D8C5
:1013100095DA8FEA91E062E070E0AED28F3F11F093
:1013200000E03AC08EE391E0BBD18EE391E0B1D111
:101330008EE391E06BE870E00E94E5118EE391E0AE
:1013400060E041E078D18EE391E06EE770E00E94CA
:10135000E51124EC39E040E951E023C08EE391E04F
:1013600060E0402F68D110E012C0802F90E070E064
:101370000E945F14BC016E5F7F4F610F711D8FEA89
:1013800091E07AD2682F8EE391E003D11F5F6091E4
:101390005A01161750F30F5F80915B010817F0F2A6
:1013A000D8CFCA010197F1F721503040D1F784EC32
:1013B00099E020E931E0F9013197F1F70197D9F788
:1013C00084EC99E020E931E0F9013197F1F70197D8
:1013D000D9F784EC99E020E931E0F9013197F1F790
:1013E0000197D9F78EE391E05BD110925C011092E6
:1013F0005D0150915B0180915A0140E0282F30E05F
:10140000220F331F220F331F60E206C06083349621
:10141000E817F907D9F74F5F451750F4842F90E08C
:10142000FC01E15AFE4F820F931F815A9E4FF0CF6D
:101430008EE391E02ED1DF91CF911F910F9108950E
:10144000DC011596EC914E2F50E0CA01FC0174D2DC
:1014500084E0982F9150F1F79A01F90167D28150F9
:10146000F1F7FA0169D280E991E00197F1F7089567
:10147000CF92DF92EF92FF920F931F93CF93DF9360
:10148000D82EC92E282F392FC9018C01C0E0D0E0F9
:10149000E62EFF24F801868102D2F8018681E82F2A
:1014A000F0E0C7010C2E02C0959587950A94E2F7EB
:1014B0008170082E38D221960F5F1F4FC830D1059A
:1014C00049F78D2D9C2DBCDFDF91CF911F910F919E
:1014D000FF90EF90DF90CF900895CF92DF92EF9240
:1014E000FF920F931F93CF93DF93D82EC92E282FEF
:1014F000392FC9018C01C0E0D0E0E62EFF24F801AD
:101500008681CDD1F8018681E82FF0E0C7010C2E4D
:1015100002C0959587950A94E2F78170082E03D250
:1015200021960F5F1F4FC430D10549F78D2D9C2D9B
:1015300087DFDF91CF911F910F91FF90EF90DF90A8
:10154000CF9008951F93CF93DF93EC01162F8B81DB
:10155000E82FF0E0042EE7D18C818F3F19F0E82FBF
:10156000F0E0EAD18E8584FF04C0CE01612F80DFD8
:101570000CC0612F70E084E0759567958A95E1F75E
:10158000CE01ABDFCE01612FA8DFDF91CF911F919C
:10159000089541E0D7DF81E090E0089540E0D2CFA8
:1015A000EF92FF920F931F93CF93DF938C017A01F9
:1015B0006770660F660F660F6064F0DFC0E0D0E012
:1015C000D801ED91FC91D701AC0FBD1F0190F081C6
:1015D000E02DC8016C9109952196C830D10581F79D
:1015E000DF91CF911F910F91FF90EF900895FC0133
:1015F0006785862F816087876960CF01CFCFFC0127
:1016000067856E7F67876860C9CFFC016785862F15
:10161000826087876A60CF01C1CFFC0167856D7FDB
:1016200067876860BBCFFC016785862F84608787EA
:101630006C60CF01B3CFDF93CF93CDB7DEB72897E0
:101640000FB6F894DEBF0FBECDBF9C01FE013196F0
:10165000A5E1B1E088E00D9001928150E1F7F90138
:101660008289481710F0482F4150E42FF0E0EE0F28
:10167000FF1FEC0FFD1F8181680F6068C9018EDFBD
:1016800028960FB6F894DEBF0FBECDBFCF91DF9185
:10169000089562E083DF80E49FE10197F1F7089508
:1016A00061E07CDF80E49FE10197F1F708950F93FB
:1016B0001F93CF93DF93EC01423018F08E85886042
:1016C0008E874A8B1B8A222329F0413019F48E859C
:1016D00084608E8780E49DE00197F1F78B81E82F8D
:1016E000F0E02AD18D81E82FF0E026D18C818F3F68
:1016F00019F0E82FF0E020D16E8564FD19C0CE010D
:1017000063E0EBDE00E516E4C8010197F1F7CE01D6
:1017100063E0E3DEC8010197F1F7CE0163E0DDDEAF
:1017200088E592E00197F1F7CE0162E0D6DE13C0C2
:101730006062CE0133DF80E596E40197F1F76E85B4
:101740006062CE012BDF88E592E00197F1F76E85AC
:101750006062CE0123DF6E856062CE011FDF84E010
:101760008F87CE0160DFCE019BDF82E0888BCE01C8
:1017700066E014DFDF91CF911F910F9108956F9272
:101780007F928F92AF92CF92EF920F931F93DF933E
:10179000CF93CDB7DEB73C01162F842FF3014383DF
:1017A00024830583E682C782A08681869D859287F1
:1017B0009E8593879F8594879889958770D0F3013C
:1017C00084818F3F09F06BD0F301858168D01123AC
:1017D00019F0F301168603C080E1F3018687C30187
:1017E00060E141E020E063DFCF91DF911F910F9135
:1017F000EF90CF90AF908F907F906F9008958F92E1
:10180000AF92CF92DF92EF92FF920F931F93CF93FD
:10181000DF93DC01362F542F722F102FFE2CDC2C7F
:101820008A2C12961C92129781E191E011969C935A
:101830008E9300D000D0EDB7FEB73196CDB7DEB7AE
:101840001982118212821382CD0161E0432F252F6C
:10185000072FE12ECF2CAD2C92DF0F900F900F9021
:101860000F90DF91CF911F910F91FF90EF90DF903C
:10187000CF90AF908F900895F999FECF72BD61BD62
:10188000F89A80B50895F999FECF1FBA72BD61BD6F
:1018900040BD0FB6F894FA9AF99A0FBE08958531B3
:1018A00070F4E8EDF0E0880FE80FF11D9591E491F8
:1018B000F0E02FB7F8948181892B81832FBF0895A1
:1018C0008531B0F4E8EDF0E0880FE80FF11D959157
:1018D000E491F0E02FB7F89481819095892381837A
:1018E00082818923828380910000809300002FBF32
:1018F00008958531B8F4E8EDF0E0880FE80FF11DA8
:101900002591E491F0E03FB7F8948181922F909572
:10191000892381838281822B82838091000080933E
:1019200000003FBF0895002039F000C0E53150F4B9
:10193000EE0FED55F34F0994E53120F4EE0FE3532C
:10194000F34F09940895589A52C0599A08955A9A93
:1019500008955B9A08955C9A08955D9A08955E9A39
:1019600008955F9A0895289A0895299A08952A9AC1
:1019700008952B9A08952C9A08952D9A08952E9AD9
:1019800008952F9A44C0479A0895469A34C0459ABC
:1019900038C0449A0895429A0895589828C0599892
:1019A00008955A9808955B9808955C9808955D98F5
:1019B00008955E9808955F98089528980895299845
:1019C00008952A9808952B9808952C9808952D9895
:1019D00008952E9808952F981AC04798089546980C
:1019E0000AC045980EC04498089542980895E4B5F9
:1019F000EF7DE4BD0895E0918000EF77E0938000F3
:101A00000895E0918000EF7DE09380000895E091DB
:101A10008000E77FE093800008951DBA109268006F
:101A20001CBC10BE1FBA10926E0010926F00109274
:101A3000C90014B817B81AB815B818B81BB8089563
:101A4000F89480E29EE40197F1F781E08093E00052
:101A500080E28093D80080E69AEE0197F1F7DDDF0F
:101A60000C94001FFFCFF894D8DF80E69AEE019720
:101A7000F1F70C940000FFCF8F938FB78F93809175
:101A8000B8018D5F8D37D0F48093B8018091B40197
:101A90008F5F8093B401D8F08091B5018F4F809310
:101AA000B501A8F08091B6018F4F8093B60178F010
:101AB0008091B7018F4F8093B70109C08D578093F4
:101AC000B8018091B4018E5F8093B40128F78091B2
:101AD000B0018C5F8093B00158F08091B1018F4FBD
:101AE0008093B10128F08091B2018F4F8093B201B1
:101AF0008F918FBF8F9118959B01AC0114D0FB0182
:101B00000CC011D06E1B7F0B685E7340D0F3215068
:101B1000304040405040E851FC4F2115310541050F
:101B2000510579F708950FB6F89466B515B270911E
:101B3000B0018091B1019091B2010FBE10FE05C0BD
:101B40006F3F19F07C5F8F4F9F4F11240024660F69
:101B5000001C660F001C70290895F894E1E6F0E07F
:101B600080E88083108283E084BD85BDEEE6F0E0EE
:101B700080818160808381E08093800082E0809317
:101B8000810002D0789408958091D80087FF02C028
:101B900085FF18C080EA8093D80086E089BD09B42B
:101BA00000FEFDCF80E88093D8001092E0001092F4
:101BB0003B0210923C0210923D021092E1008DE037
:101BC0008093E20008951F920F920FB60F92112496
:101BD0002F933F934F935F936F937F938F939F9335
:101BE000AF93BF93EF93FF931092E9008091E800C9
:101BF00083FF57C12091F1009091F1004091F100D5
:101C00005091F1006091F1007091F100A091F1000C
:101C1000B091F10082EF8093E800963009F044C063
:101C2000E2E0F1E020E0859195918417950711F0AD
:101C3000359617C0859195918617970711F03396C1
:101C400010C0259135914491CD01AF3FB10519F0F8
:101C500010F08FEF90E0841708F4482FF9015EEF41
:101C600004C02F5F2630F9F61CC18091E800282FB0
:101C700030E0C90185709070892BB9F322FD14C141
:101C8000242F413208F020E2922F04C085918093E6
:101C9000F10091509923D1F7421B5093E80044235F
:101CA00021F7203211F300C1953061F48EEF80935B
:101CB000E8008091E80080FFFCCF842F806880934B
:101CC000E300F2C0993009F5222309F0EAC04093FD
:101CD0003B0210923D021092B9018EEF8093E80012
:101CE000ECE2F1E091E09093E90085918093EB00C4
:101CF000882331F085918093EC0085918093ED00ED
:101D00009F5F953081F78EE1C7C0983061F420382D
:101D100009F0C7C08091E80080FFFCCF80913B02B2
:101D20008093F10096C09132A9F4213A09F0B9C02C
:101D30008091E80080FFFCCF20E030E0F901EB5F0C
:101D4000FE4F80818093F1002F5F3F4F2730310598
:101D5000A9F77FC0903209F04BC0213209F0A1C031
:101D60008091E80082FFFCCF20E030E0F901EB5FDA
:101D7000FE4F8091F10080832F5F3F4F2730310568
:101D8000A9F78BEF8093E8008EEF8093E8008091B5
:101D9000050190910601A0910701B09108018638D4
:101DA0009105A105B10519F48FE08093BA018091E6
:101DB000050190910601A0910701B09108018639B3
:101DC0009105A105B10509F06FC084E08093E90099
:101DD0002FEF06C02093E8008091E80082FDFCCF41
:101DE0008091EE0090E083709070892B99F73BDE34
:101DF000923251F4213209F054C040933D02809157
:101E0000E80080FFFCCF25C0933241F4213209F075
:101E100048C08091E80080FFFCCF1BC09923E9F403
:101E20008091E80080FFFCCF223811F080E00DC0E7
:101E30006093E9008091EB0090E025E0969587950E
:101E40002A95E1F781701092E9008093F1001092D9
:101E5000F1008EEF8093E80027C0913011F09330AD
:101E600001F52230F1F4452BE1F4262F2F77822F54
:101E700081508630B0F48EEF8093E8002093E90023
:101E8000933079F089E18093EB0081E090E002C02B
:101E9000880F991F2A95E2F78093EA001092EA00D2
:101EA00003C081E28093EB00FF91EF91BF91AF916E
:101EB0009F918F917F916F915F914F913F912F9162
:101EC0000F900FBE0F901F9018951F920F920FB694
:101ED0000F9211242F933F934F935F936F937F93B0
:101EE0008F939F93AF93BF93EF93FF938091E10004
:101EF0001092E100982F83FF11C01092E90081E059
:101F00008093EB001092EC0082E28093ED0088E079
:101F10008093F00010923B0210923D0292FF1DC090
:101F200080913B028823C9F08091B901882359F040
:101F300081508093B901882331F484E08093E900D3
:101F40008AE38093E8008091BA01882331F08150C0
:101F50008093BA01882309F473DD90FF0CC080E1FF
:101F60008093E20010923B0281E080933C0280EA81
:101F70008093D80019BC80913C02882379F094FFAB
:101F80000DC086E089BD09B400FEFDCF80E88093D6
:101F9000D8008DE08093E20010923C02FF91EF9117
:101FA000BF91AF919F918F917F916F915F914F9171
:101FB0003F912F910F900FBE0F901F901895909109
:101FC000EF018091F001292F30E0482F50E0981761
:101FD00010F4205C3F4F241B350BC90108958091FC
:101FE000EF01E091F0018E1719F4EFEFFFEF06C05B
:101FF000F0E0EF50FE4F8081E82FF0E0CF01089530
:102000009091EF018091F001981719F42FEF3FEFB5
:102010000FC02091F0012F5F203408F020E0E22F64
:10202000F0E0EF50FE4F80812093F001282F30E048
:10203000C90108958091C4018823E1F708951F9292
:102040000F920FB60F9211242F938F939F93EF93BC
:10205000FF932091CE009091EF019F5F903408F0A4
:1020600090E08091F001981739F0E92FF0E0EF50FF
:10207000FE4F20839093EF01FF91EF919F918F91FD
:102080002F910F900FBE0F901F9018951F920F92D7
:102090000FB60F9211248F939F93EF93FF9390911C
:1020A000C5018091C601981721F488ED8093C9007D
:1020B0000FC09091C6019F5F983208F090E0E92F21
:1020C000F0E0E953FE4F80818093CE009093C601EB
:1020D000FF91EF919F918F910F900FBE0F901F90E6
:1020E00018951092BE0188EE93E0A0E0B0E08093D6
:1020F000BF019093C001A093C101B093C20110929F
:10210000C30181E291E09093BD018093BC010895E9
:102110001F920F920FB60F9211248F93EF93FF939C
:102120001092C40180910C018F3F29F080910C0125
:10213000E82FF0E001DCFF91EF918F910F900FBE3F
:102140000F901F901895FC018091C90083FD05C078
:1021500081E0828320E030E026C080910C018F3F37
:1021600049F08091C401882329F480910C01E82F63
:10217000F0E0DCDB9091C5019F5F983208F090E0C1
:102180008091C6018917E1F3E92FF0E0E953FE4F92
:10219000608381E08093C4019093C50188EF8093B0
:1021A000C90021E030E0C90108951F93CF93DF9368
:1021B000EB01142F40930C014F3F29F0842F6FDB6C
:1021C000E12FF0E0B9DBC0FF08C080E1C130D807E3
:1021D00020F482E08093C80004C01092C800D69515
:1021E000C7952197D093CD00C093CC008091C900B2
:1021F00083FD10C01092EF011092F0011092C50102
:102200001092C6011092C40186E08093CA0088ED46
:102210008093C900DF91CF911F9108959EDC0E94A9
:102220007B080E946A05FDCFCF92DF92EF92FF926A
:102230000F931F93CF93DF937C016B018A01C0E062
:10224000D0E00FC0D6016D916D01D701ED91FC91E9
:102250000190F081E02DC7010995C80FD91F0150E9
:1022600010400115110571F7CE01DF91CF911F913B
:102270000F91FF90EF90DF90CF900895DF93CF9371
:1022800000D0CDB7DEB7DC018DE089838AE08A8398
:10229000ED91FC9111970280F381E02DCD01BE01FB
:1022A0006F5F7F4F42E050E009950F900F90CF9104
:1022B000DF9108954F925F926F927F928F929F92DB
:1022C000AF92BF92CF92DF92EF92FF920F931F9344
:1022D000DF93CF93CDB7DEB7A1970FB6F894DEBFEB
:1022E0000FBECDBF3C016A017B01222349F4DC0112
:1022F000ED91FC910190F081E02D642F09954EC085
:10230000213009F42AE0C114D104E104F10421F4DC
:1023100080E389A310E227C010E2822E9924AA2428
:10232000BB242E010894411C511CC701B601A50114
:10233000940104D36A3010F4605D01C0695CF2015D
:10234000E10FF11D6083C701B601A5019401F6D22A
:10235000C901DA016C017D01C114D104E104F10469
:1023600011F01150E2CF002331F01150FE01E10FC6
:10237000F11D8DE28183812F90E0D301ED91FC91DD
:10238000BE016F5F7F4F680F791F41E250E0481B2D
:10239000590B0280F381E02DC3010995A1960FB678
:1023A000F894DEBF0FBECDBFCF91DF911F910F918B
:1023B000FF90EF90DF90CF90BF90AF909F908F9065
:1023C0007F906F905F904F9008956F927F928F9261
:1023D0009F92AF92BF92CF92DF92EF92FF920F93B4
:1023E0001F93DF93CF93CDB7DEB7A0970FB6F894C6
:1023F000DEBF0FBECDBF4C015B01CB010E941D01B2
:102400007C01CC24DD243E010894611C711C1CC09D
:10241000870181E2E816F10410F000E210E0C30148
:10242000B501A8010E941401A00EB11EE01AF10A24
:10243000D401ED91FC910280F381E02DC401B30140
:10244000A8010995C80ED91EE114F10409F7C601C7
:10245000A0960FB6F894DEBF0FBECDBFCF91DF912F
:102460001F910F91FF90EF90DF90CF90BF90AF90B2
:102470009F908F907F906F900895DF93CF930F92EE
:10248000CDB7DEB7FC016983A081B18112962D9191
:102490003C911397BE016F5F7F4F41E050E0F9011F
:1024A00009950F90CF91DF910895FC019FB7F894A3
:1024B00080913B02882311F420E010C083E08093D8
:1024C000E9002091F200222349F48091E80082FF84
:1024D00005C085FD03C08BE68093E8009FBF808523
:1024E000918597FD03C02F3F09F02F5F822F90E069
:1024F0000895CF93DF93EC018885998597FF09C0F4
:10250000E881F9810680F781E02DCE010995998750
:10251000888788859985DF91CF910895FC01208572
:10252000318537FD05C08FEF9FEF9187808722C0EF
:102530002FB7F89480913B02882369F083E0809361
:10254000E9009BE68091E80085FD09C082FF03C099
:102550009093E800F7CF2FBF2FEF3FEF0CC0909183
:10256000F1008091E80085FD03C08BE68093E800D0
:102570002FBF292F30E0C90108959FB7F8948091AB
:102580003B02882361F08091B901882341F084E007
:102590008093E9008AE38093E8001092B9019FBF1D
:1025A00008956F927F928F929F92AF92BF92CF9237
:1025B000DF92EF92FF920F931F93CF93DF933C0133
:1025C0008B0180913B02882329F481E0D30112968C
:1025D0008C9311C03FB7F89484E08093E900809118
:1025E000BB01882369F08091E80085FD07C03FBFEB
:1025F00081E0E3018A83882499249AC01092BB0168
:1026000088249924F4E0AF2EE0E2BE2E71EFE72E8D
:10261000F12C6AE3C62E23E0D22E85C09091E4000F
:10262000915F8091E80085FD19C03FBF8091E40073
:10263000891731F481E08093BB01F301828378C074
:1026400080913B02882329F481E0D30112968C9378
:102650006FC03FB7F894A092E900E3CF8091F200F9
:102660002B2D281B822F90E04817590708F4242FA0
:10267000622F70E0E801D701E0E2E21BE03228F4CB
:10268000EE0FFF27EA5BFC4E099440C089918C93C2
:1026900089918C9389918C9389918C9389918C9356
:1026A00089918C9389918C9389918C9389918C9346
:1026B00089918C9389918C9389918C9389918C9336
:1026C00089918C9389918C9389918C9389918C9326
:1026D00089918C9389918C9389918C9389918C9316
:1026E00089918C9389918C9389918C9389918C9306
:1026F00089918C9389918C9389918C9389918C93F6
:1027000089918C9389918C9389918C938E0180917E
:10271000E80085FD02C0C092E800461B570B860EFC
:10272000971ED092B9014115510509F077CF3FBFEF
:10273000C401DF91CF911F910F91FF90EF90DF9037
:10274000CF90BF90AF909F908F907F906F900895A3
:10275000E1E3F2E08AE0DF011D928A95E9F7109249
:10276000330288EE93E0A0E0B0E0809334029093CF
:102770003502A0933602B09337021092380281E3FB
:1027800091E0909332028093310208952FEF3FEF52
:10279000FC0131872087F8D90FB6F8948091B401F5
:1027A0009091B501A091B601B091B7010FBEAC01F7
:1027B00080913B02882329F068EC70E080E090E093
:1027C0009BC980913C02882309F10FB6F89480914F
:1027D000B4019091B501A091B601B091B7010FBEBF
:1027E0009C0110C00FB6F8948091B4019091B5018E
:1027F000A091B601B091B7010FBE821B930B8B3F26
:102800009105A8F480913C02882361F70FB6F894F3
:102810008091B4019091B501A091B601B091B7013A
:102820000FBE841B950B855C994008F4C1CF0895B9
:102830002F923F924F925F926F927F928F929F92D0
:10284000AF92BF92CF92DF92EF92FF920F931F93BE
:10285000DF93CF93CDB7DEB73B014C0119012A01BD
:102860006D897E898F89988D6A197B098C099D09EC
:10287000621A730A840A950AA401930132D0E218FD
:10288000F30804091509A80197017AD02A0D3B1D08
:102890004C1D5D1DB901CA01CF91DF911F910F91B0
:1028A000FF90EF90DF90CF90BF90AF909F908F9070
:1028B0007F906F905F904F903F902F900895552795
:1028C000002480FF02C0060E571F660F771F611598
:1028D000710521F096958795009799F7952F802D92
:1028E0000895FF27EE27BB27AA2760FF04C0A20F89
:1028F000B31FE41FF51F220F331F441F551F96956A
:1029000087957795679589F70097760771F7CF01D7
:10291000BD010895AA1BBB1B51E107C0AA1FBB1F25
:10292000A617B70710F0A61BB70B881F991F5A955B
:10293000A9F780959095BC01CD010895A1E21A2ECA
:10294000AA1BBB1BFD010DC0AA1FBB1FEE1FFF1F53
:10295000A217B307E407F50720F0A21BB30BE40BA3
:10296000F50B661F771F881F991F1A9469F76095EA
:102970007095809590959B01AC01BD01CF010895A4
:1029800097FB092E05260ED057FD04D0D7DF0AD0BD
:10299000001C38F450954095309521953F4F4F4F8E
:1029A0005F4F0895F6F790958095709561957F4FEC
:1029B0008F4F9F4F0895EE0FFF1F0590F491E02D6C
:0629C0000994F894FFCF1A
:1029C60008141310FF00E10000000008FF000000DB
:1029D60000C90A1411000040001400540000000051
:1029E60000A3101411DF0F0010EF0F1A10000000E3
:0E29F600003D12D11255128E127912BD120040
:00000001FF
